:100000000C94B1040C94CE040C94CE040C94CE0445
:100010000C94CE040C94CE040C94CE040C94CE0418
:100020000C94CE040C94CE040C9474170C942D1CD8
:100030000C9479300C94CE040C94CE040C94CE0421
:100040000C94CE040C94CE040C94CE040C94CE04E8
:100050000C94CE040C944B180C94CE040C94CE0447
:100060000C94CE040C94CE040C94CE040C94CE04C8
:100070000C94CE040C94CE040C94CE040C94CE04B8
:100080000C94CE040C94CE040C94CE040C94CE04A8
:100090000C94CE040C94CE040C94CE040C94CE0498
:1000A0000C94CE040C94CE040C94CE04050109806B
:1000B000A101850319012AB700150126B700950192
:1000C00075108100C0050C0901A101850419012AE0
:1000D000A002150126A002950175108100C005013E
:1000E0000906A1018505050719E029E71500250185
:1000F0009508750181020507190029EF15002501F2
:1001000095F075018102050819012905950575010C
:100110009102950175039101C005010902A1010930
:1001200001A100050919012905150025019505758D
:10013000018102950175038101050109300931151D
:1001400081257F95027508810609381581257F95DF
:100150000175088106050C0A38021581257F950175
:1001600075088106C0C005010906A101050719E04F
:1001700029E715002501950875018102950175088B
:1001800081010507190029FF150026FF0095067556
:100190000881000508190129059505750191029549
:1001A0000175039101C00000000000000000000084
:1001B000000000000000000000000000000000003F
:1001C000000000000000000000000000000000002F
:1001D000000000000000000000000000000000001F
:1001E000000000000000000000000000000000000F
:1001F00000000000000000000000000000000000FF
:1002000000000000000000000000000000000000EE
:1002100000000000000000000000000000000000DE
:1002200000000000000000000000000000000000CE
:1002300000000000000000000000000000000000BE
:100240000000000000000000F8FDFEF8FDFE0000C8
:10025000000000000000000000000000000000009E
:10026000000000F8FDFE000000000000000000009B
:10027000000000000000000000000000000000007E
:10028000000000000000000000000000000000006E
:10029000000000000000000000F8FDFE000000006B
:1002A000000000000000000000000000000000004E
:1002B000000000000000000000000000000000003E
:1002C000000000000000000000000000000000002E
:1002D00000000000000000000000000000FF00001F
:1002E000000000000000000000FF0000FF0000FF11
:1002F00000000000000000000000000000000000FE
:1003000000000000FF0000FF0000000000000000EF
:1003100000000000000000000000000000000000DD
:100320000000000000FF00000000000000000000CE
:1003300000FF0000FF0000FF0000000000000000C0
:10034000000000000000000000000000FF0000FFAF
:10035000000000000000000000000000000000009D
:1003600000000000007BFFFF87DACCA4FFFFBEFF88
:10037000FFE0FFFF7BFFFF87DACCA4FFFFBEFFFF9C
:10038000E0FFFF7BFFFF87DACCA4FFFFBEFFFFE0AB
:10039000FFFF00000000000000000000000000005F
:1003A0000000000000000000000000000077FFFFD8
:1003B0005DFFFF3FFFFF1BFFFF00FFFF77FFFF5DBC
:1003C000FFFF3FFFFF1BFFFF00FFFF77FFFF5DFF0A
:1003D000FF3FFFFF1BFFFF00FFFF000000000000CA
:1003E0000000000000000001010101010101010104
:1003F00002020202020202020203030303030303D6
:1004000003040404040404040505050505060606A2
:100410000606070707070708080808090909090A5F
:100420000A0A0B0B0B0C0C0C0D0D0D0E0E0E0F0F04
:100430000F10101111111212131314141515161692
:100440001717181819191A1A1B1B1C1D1D1E1E1F01
:100450002020212222232424252626272829292A50
:100460002B2C2D2D2E2F3031323233343536373878
:10047000393A3B3C3D3E3F40414243444546474874
:10048000494A4C4D4E4F50515354555658595A5B4A
:100490005D5E5F616264656668696B6C6D6F7072EA
:1004A000737577787A7B7D7E8082838587888A8C56
:1004B0008E8F91939596989A9C9EA0A2A3A5A7A98A
:1004C000ABADAFB1B3B5B7BABCBEC0C2C4C6C9CB81
:1004D000CDCFD1D4D6D8DBDDDFE2E4E7E9EBEEF037
:1004E000F3F5F8FAFDFF29002B003900E100E000E8
:1004F00000001E00140004001D00095D69001F00BB
:100500001A0016001B00E300280020000800070066
:10051000060050002C0021001500090019005200AF
:100520006A00220017000A0005000000C35C3500C5
:10053000A9000000AA000000F400115000570000BC
:10054000AD000000F50023001C000B0011000000AE
:10055000075D240018000D0010005100045D250007
:100560000C000E0036004F002C00260012000F0079
:1005700037002F00280027001300330038713000A7
:10058000065D2A0031002E002D72340000000100AB
:100590000100010001000100000001000100010054
:1005A000010001002F5D01000100010001000100B8
:1005B000CA5C01000100010001000100CB5C0100E8
:1005C00001000100010001002E5D01000100010099
:1005D00001000000C45C01000100000001000000F7
:1005E0002D5D12500100000001000000C35C0100FD
:1005F00001000100010000002C5D0100010001006C
:1006000001000100010001000100010001000100E2
:10061000C65C01000100010001000100C75C01008F
:1006200001000100010001000100010001000100C2
:1006300001000100000001000100010001000100B3
:1006400000000100010001000100010001000100A3
:100650000100F2000100010001000100F000F100C2
:100660000100F400010001000100F3000100F500A9
:100670000100010001000100010000000100010073
:100680000100000001000000010013500100000003
:100690000100000001000100010001000100000054
:1006A000010001000100F2000100F400010001005E
:1006B000F000F1000100F500010001000100F3006D
:1006C0000100010001000100010001000100010022
:1006D0000100010001000100010001000000010013
:1006E0000100010001000100000001000100010003
:1006F00001000100010001000100010001000100F2
:1007000001000100010001000100010001000100E1
:1007100001000100010001000100010001000100D1
:1007200001000000C45C01000100000001000000A5
:100730000100105001000000010000000100010054
:1007400001000100010000000100010001000100A2
:100750000100010001000100010001000100010091
:100760000100010001000100010001000100010081
:100770000100010001000100010001000100010071
:100780000100010000000A00000000000306B200A2
:10079000080001000000A800080002000300A000FB
:1007A0001400030057494E5553420000000000005A
:1007B000000000008400040007002A0044006500D7
:1007C000760069006300650049006E0074006500F2
:1007D0007200660061006300650047005500490033
:1007E00044007300000050007B00390044004200C8
:1007F000370046003100460044002D003700450018
:10080000370041002D0034003000300038002D004A
:1008100039003300360042002D003600420041000E
:100820003600430031003900410033003000380009
:1008300063007D00000000001B0301636F6E6669AA
:10084000677572652E6572676F646F782D657A2E95
:10085000636F6D0009026B00040100A0FA09040037
:1008600000010301010009211101000122400007DC
:1008700005810308000A09040100010301020009BF
:100880002111010001224D000705820308000A0919
:100890000402000103000000092111010001226D82
:1008A000000705830320000A0904030002FF00007B
:1008B00000070584034000050705050340000512F5
:1008C0000110020000000897327649010001020081
:1008D0000120034500720067006F0044006F00783C
:1008E00000200045005A00200047006C006F007790
:1008F00000000030035A00530041002000540065FE
:1009000000630068006E006F006C006F0067007984
:100910000020004C00610062007300200049006E5E
:10092000006300000004030904050F3900021C10D5
:100930000500DF60DDD88945C74C9CD2659D9E646B
:100940008A9F00000306B20045001810050038B663
:100950000834A909A0478BFDA0768815B66500016B
:10096000420011241FBECFEFDAE0DEBFCDBF28E08A
:10097000A4E3B3E001C01D92A23DB207E1F713E08A
:10098000A0E0B1E0ECECFBE602C005900D92A433D0
:10099000B107D9F70E94EF2C0C948C350C94000011
:1009A000E8EDF0E080818E7F80831092E20010926B
:1009B000DA001092E100A0EEB0E08C9181608C939F
:1009C00080818F77808319BCA7EDB0E08C918E7FFA
:1009D0008C9380818F7E808310929308089520915C
:1009E000E4003091E50095E6A9012091EC00822F0A
:1009F000817020FF06C08091E80080FF06C080E083
:100A000008952091E80022FD1AC08091B80888233B
:100A100089F0853089F08091EB0085FD0FC0209131
:100A2000E4003091E50042175307F9F29150E1F6E6
:100A300084E0089582E0089583E0089581E00895B8
:100A4000EF92FF920F931F93CF937C018B010E9433
:100A5000EF04C82F882371F08C2FCF911F910F9135
:100A6000FF90EF900895F70181917F018093F1004D
:100A7000015011090115110579F38091E80085FDF8
:100A8000F2CF8091E8008E778093E8000E94EF0417
:100A9000882381F3C82FE0CF8091BA0887FF13C065
:100AA0008091E80082FF06C08091E8008B778093F8
:100AB000E80004C08091B8088111F2CF08958091B8
:100AC000B8088823D9F38091E80080FFF8CF80919F
:100AD000E8008E77ECCF982F9093E900242F762FA3
:100AE00050E0891731F07091EC002091ED005091A9
:100AF000F00021FD07C09F5F973071F78093E900F8
:100B000081E008953091EB003E7F3093EB0030910F
:100B1000ED003D7F3093ED003091EB00316030937C
:100B2000EB007093EC002093ED005093F0002091C7
:100B3000EE0027FDE0CF80E00895CF92DF92EF92A4
:100B4000FF920F931F93CF93DF93C8EDD0E088817E
:100B50008F7E8883E7EDF0E080818160808384E090
:100B600082BF81E08093930888818E7F888302EE24
:100B700010E0F80110821092DA0081EEC82ED12C1C
:100B8000F601108288818F778883888180688883C6
:100B900088818F7D888319BC1092B8081092B9089B
:100BA0001092B7081092B60890EEE92EF12CF701DA
:100BB00080818B7F808388818160888342E060E0D0
:100BC00080E00E946B05F60180818E7F8083F801B2
:100BD000808181608083808188608083F70180814B
:100BE0008E7F8083888180618883DF91CF911F9180
:100BF0000F91FF90EF90DF90CF900895FC018091CE
:100C0000C0089091C10886179707A0F0611571057B
:100C100029F48091E8008E778093E80090E06115D8
:100C2000710551F4911108C08091E80082FF35C030
:100C300080E00895BC01F2CF8091B8088823C9F103
:100C40008530C9F18091E80083FD31C08091E800D2
:100C500082FDEACF8091E80080FFE1CF8091F30030
:100C60002091F200382F6115710519F028303105F7
:100C700058F091E02830310509F090E08091E800CB
:100C80008E778093E800CBCF84918093F1003196EA
:100C9000615071092F5F3F4FE6CF8091B8088823DC
:100CA00041F0853041F08091E80083FFBDCF81E0C5
:100CB000089582E0089583E00895FC018091C008C2
:100CC0009091C10886179707A0F06115710529F466
:100CD0009091E8009E779093E80090E0611571058F
:100CE00051F4911108C08091E80082FF34C080E087
:100CF0000895BC01F2CF8091B8088823C1F18530F6
:100D0000C1F18091E80083FD30C08091E80082FD50
:100D1000EACF8091E80080FFE1CF8091F30020913D
:100D2000F200382F6115710519F02830310558F09F
:100D300091E02830310509F090E02091E8002E770D
:100D40002093E800CBCF81918093F100615071092D
:100D50002F5F3F4FE7CF8091B808882341F085305F
:100D600041F08091E80083FFBECF81E0089582E0EA
:100D7000089583E008958091950808952091B8081A
:100D8000243091F42093E90070E050E040E00E94AC
:100D90002005882321F010929108109292088091EA
:100DA000E8008E778093E800089590917808803F5E
:100DB00059F48091790887FF0DC01092790891113C
:100DC0000BC01092740808C0813F81F480917908AB
:100DD00018169CF3992381F080917A0890917B08F2
:100DE000892B09F064C0109271080895823F49F47C
:100DF00097FFF0CF10927808809179088111ECCF9D
:100E0000E0CF833F19F41916ACF3E4CF20917A08B0
:100E1000893F29F41216F4F610927A08DBCF8A3F44
:100E200019F427FFD7CFF8CF20917B088B3F29F407
:100E300027FFD0CF10927B08CDCF8C3F19F412162C
:100E4000CCF3C8CF843F31F4809177088E7F8093B4
:100E50007708C0CF853F21F4809177088D7FF7CF49
:100E6000863F21F4809177088B7FF1CF873F21F473
:100E700080917708877FEBCF883F21F480917708B6
:100E80008F7EE5CF8D3F31F4809148088E7F80932F
:100E90004808A0CF8E3F21F4809148088D7FF7CF7E
:100EA0008F3F09F097CF809148088B7FF0CF08954E
:100EB0008091480880FD1AC081FD14C082FD14C0D5
:100EC00080917108882391F08C3370F427E0829F21
:100ED000C00111246CE370E00E949431862F672BCF
:100EE00029F0089583E0089587E0089581E008954A
:100EF0008091480880FD16C081FD16C082FD18C093
:100F000080917408882391F08C3390F423E2829FBF
:100F1000C00111246CE370E00E949431862F672B8E
:100F200049F0089588E0089581E1089585E00895E5
:100F300083E2089581E00895803F31F40E947807AC
:100F40008195809379080895813F19F40E9478076C
:100F5000F8CF823F31F40E9478078195809378081A
:100F60000895833F19F40E947807F8CF893F29F448
:100F70000E94580780937A0808958A3F21F40E94BE
:100F800058078195F7CF8B3F31F40E945807819520
:100F900080937B0808958C3F19F40E945807F8CF7E
:100FA000843F31F4809177088160809377080895B9
:100FB000853F21F4809177088260F7CF863F21F446
:100FC000809177088460F1CF873F21F48091770882
:100FD0008860EBCF883F21F4809177088061E5CF6E
:100FE0008D3F31F4809148088160809348080895CE
:100FF0008E3F21F4809148088260F7CF8F3FB9F788
:10100000809148088460F1CF9C014FB7F89480919B
:10101000440890914508A0914608B09147084FBFF9
:10102000821B930B0895209134012223C9F0209153
:101030005D0827FF15C0E62FE695E695E695EE31AB
:10104000D8F4E80FF92FF11D677021E030E001C0FE
:10105000220F6A95EAF7209582812823228308953A
:10106000FC01329608962191621303C0DF011197AB
:101070001C92E817F907B9F708952091340122234B
:10108000C1F020915D0827FF14C0E62FE695E69594
:10109000E695EE31F8F4E80FF92FF11D677021E0C5
:1010A00030E001C0220F6A95EAF78281822B8283A9
:1010B0000895FC0132962FEF30E04191641751F012
:1010C0002F3F19F4411101C0232F3F5F3630A9F79C
:1010D0002F3F09F40895820F911D27FD9A95FC0179
:1010E00062830895CF92DF92EF92FF926C01EE241B
:1010F000FF2420E0C114D104E104F10419F0C70178
:10110000B60120E1C72ED82EE92EFF24C114D10448
:10111000E104F10419F0285FC701B6016B017C01FD
:1011200054E0F694E794D794C7945A95D1F7C11434
:10113000D104E104F10419F02C5FC701B6016B0181
:101140007C0142E0F694E794D794C7944A95D1F78E
:10115000C114D104E104F10419F02E5FC701B601F6
:101160009695879577956795672B682B692B09F07E
:101170002F5F822FFF90EF90DF90CF9008958091A6
:101180003F08811110923F080895809590913E0884
:10119000982390933E08089580913E0890913D08D1
:1011A000892B90913C08892B8093340390913F08C0
:1011B0009923A1F0892B80933403809134018823F3
:1011C00041F180915D0887FF24C08EE1E6E3F3E002
:1011D00090E0815000F591110E94BF08E0915F08F6
:1011E000F09160083097E1F080913401882359F044
:1011F00080915D0887FF07C0809134038093350399
:1012000085E0809334030280F381E02D84E393E052
:10121000099486E0DBCF21912223D9F29F5FD9CFB9
:101220000895E92FEE0FE90FEE0F8E0F982F9770AC
:1012300086958695869525E0829FF0011124EC5FC6
:10124000F74F50E040E080E0219130E0092E02C0ED
:10125000369527950A94E2F721703327042E01C0B2
:10126000220F0A94EAF7822B4F5F5F4F45305105FA
:1012700059F70895E92FEE0FE90FEE0F8E0F982F13
:10128000977041E001C0440F9A95EAF786958695DC
:10129000869595E0899FF0011124EC5FF74F30E0CF
:1012A00020E070E05191DF011197CB01022E02C0C6
:1012B000969587950A94E2F7817081958527842316
:1012C00085278C932F5F3F4F2530310559F70895BF
:1012D000809103089091D207981301C008958F5F01
:1012E0008770FACF882321F00E94C5080C94CC089F
:1012F0000895882339F090913E08982B90933E08EA
:101300000C94CC0808952091C3043091C40428178C
:10131000390771F09093C4048093C304E0915F088F
:10132000F0916008309721F00084F185E02D099458
:1013300008952091C1043091C2042817390771F033
:101340009093C2048093C104E0915F08F09160081B
:10135000309721F00680F781E02D09940895E091FF
:101360005F08F0916008309721F00190F081E02D46
:10137000099480E00895CF93DF93EC0181E0898B9D
:1013800080913E089F81892B80933E0880913D0883
:101390009885892B80933D080E94CC08EA81FB81C7
:1013A000309739F06C897D89CE010696DF91CF9117
:1013B0000994DF91CF910895EF92FF920F931F93BD
:1013C000CF93DF93EC018A85811139C0EB80FC80DB
:1013D00087E5F81A26E12E9DC0012F9D900D11245E
:1013E000DC01A05FBE4F1496ED91FC9115973097EC
:1013F00031F054966D917C918A5E9E4F099586E1FD
:101400008E9D80018F9D100D1124005F1E4FF801ED
:1014100087810E94C508F8018085982F909580915A
:101420003D08892380933D080E94CC0818821986C4
:101430001B861E821D821092CA071092C907DF9177
:10144000CF911F910F91FF90EF900895FA018111B4
:1014500001C0FB0109948033910538F5880F991F6D
:10146000880F991FFC01E05BFE4F52813381808120
:101470008370E181A82FB0E070E9879FC00111243B
:1014800085589C4FE80FF92FF11DB4976083FC013C
:10149000E50FF11DB4974083830F911DFC01B497B4
:1014A0002083A758BC4F81E08C930895FF920F933F
:1014B0001F93CF93DF93182F062FF42ED0E0C0E0B8
:1014C0002F2D402F612FCE010E942B0A2196C03371
:1014D000D105B1F7DF91CF911F910F91FF90089542
:1014E0008091C908837011F4109238018091C90865
:1014F0008C7F81608093C90808950C94560A0C94DF
:101500002B0A0F931F9310E0F801EE0FFF1FEC550D
:10151000FD4F9081905797FD9195000F111FF80195
:10152000EB55FD4F00810052110B2003F001219F6C
:10153000F00D112408E310E0091B110997FD139524
:1015400040039001419F300D1124E20FF31F9F01D2
:10155000220F331F2E0F3F1F37FF02C021583F4F6E
:10156000220F232F221F330B620F1F910F9108951B
:101570000F931F93522F10E0F801EE0FFF1FEB5552
:10158000FD4FA081A052BB0B9D015203F001539F60
:10159000F00D1124000F111FD801AC55BD4F0C9157
:1015A0000057110B40039001419F300D11242E0F65
:1015B0003F1F37FF02C0215C3F4F96E035952795CE
:1015C0009A95E1F7620F1F910F9108950F931F9362
:1015D000522F10E0F801EE0FFF1FEB55FD4FA081D9
:1015E000A052BB0B9D015203F001539FF00D11243B
:1015F000000F111FD801AC55BD4F0C910057110BB6
:1016000040039001419F300D11242E0F3F1F37FFE3
:1016100002C021583F4F220F232F221F330B620F8E
:101620001F910F910895EF920F93972F23E0029F40
:10163000B0011124759567956E0D792F0F91EF907C
:101640000895322F50E0FA01EE0FFF1FEB55FD4FCA
:101650009081905297FD9195440F551FFA01EC55DA
:10166000FD4F2081231B330B290F311D97FD3A9528
:10167000620F0895E42FF0E0EE0FFF1FEB55FD4FD2
:101680006081621B0895E42FF0E0EE0FFF1FEC5520
:10169000FD4F6081621B0895622F0895E42FF0E0F2
:1016A000EE0FFF1FEC55FD4F408134EE439F412D5F
:1016B0001124E82FF0E050E0445E5F4FDA01A21BF6
:1016C000B1099D01B7FF03C031952195310993E020
:1016D000220F331F9A95E1F7AF01421B530B9A017A
:1016E00057FD20E0582F259F212D1124822F08958A
:1016F000E42FF0E0EE0FFF1FEC55FD4F408134EE7C
:10170000439F412D1124E72FF0E050E0445E5F4FEE
:10171000DA01A21BB1099D01B7FF03C031952195E4
:10172000310993E0220F331F9A95E1F7AF01421B75
:10173000530B9A0157FD20E0279F212D1124722F72
:101740000895FC019B01009729F480E077FF2BC0EE
:1017500080E80895AC0197FF04C044275527481B33
:10176000590BB901640F751F37FD10C0241B350BD1
:10177000C901A5E0880F991FAA95E1F70E9494314D
:1017800080E2861BF7FF0FC081950895CB0165E0CD
:10179000880F991F6A95E1F7BA01621B730B0E94CB
:1017A000943180E6EECF0895EF920F93CF93DF93BD
:1017B000D72FC82FC9010E19BA010E94A10B602FA3
:1017C000681B7D2F8C2FDF91CF910F91EF900895A3
:1017D0000F93CF93DF93D72FC82FC901BA010E946F
:1017E000A10B682F600F7D2F8C2FDF91CF910F9170
:1017F0000895EF920F931F93CF93DF93D62FC72FA8
:10180000182FC9010E19010FBA010E94A10B081B64
:10181000202F219F212D1124822F6D2F7C2FDF91CE
:10182000CF911F910F91EF900895EF920F931F9317
:10183000CF93DF93D62F172FC82FC9010E19070F8B
:10184000BA010E94A10B702F781B719F712D11247A
:101850006D2F8C2FDF91CF911F910F91EF900895F5
:101860000F931F93CF93DF93D62FC72F182FC90144
:10187000212F201B022FBA010E94A10B982F990F34
:10188000990F891B800F282F219F212D1124822F32
:101890006D2F7C2FDF91CF911F910F9108950F93A2
:1018A0001F93CF93DF93D62F172FC82FC901272F50
:1018B000201B022FBA010E94A10B982F990F990F9C
:1018C000782F791B700F719F712D11246D2F8C2F24
:1018D000DF91CF911F910F910895E82F86FDE0953C
:1018E0002E2F2F7086FD2F5FE695E695E695E67024
:1018F000F0E0E85BFE4F9181929F902D212D112405
:1019000092959F702295207F922B2081920F87FDC8
:10191000919580E8890F0895AC018230910508F413
:1019200008959FEF413E8EE1580740F49A0195E0FB
:10193000369527959A95E1F798E0920F61E0E62FAA
:10194000E90FFF27FF1F9F0135952795822F229FC3
:10195000F001239FF00DF00D11244E175F0738F4AE
:101960009FEF920F961758F78FEF860F08952F3F2E
:10197000E9F361E0620FF6CF0F93CF93DF93D72F98
:10198000C82F47FD419588E390E0841B910947FDEE
:101990009395889FB001899F700D700D1124229F2F
:1019A000C001239F900D900D1124860F971F0E9458
:1019B0008C0C982F990F890F682F600F7D2F8C2F1B
:1019C000DF91CF910F91089530E020E0869F212D87
:1019D000969F200D311D1124C9010895AF92BF9229
:1019E000CF92DF92FF920F931F93CF93DF93362F07
:1019F000472FE82FF0E0EA51FC4F71110FC0E4913E
:101A00008E2F2E2F6E2F722FDF91CF911F910F915E
:101A1000FF90DF90CF90BF90AF900895C72FD0E098
:101A20002491F22E022F10E056E0659FC001112490
:101A3000EFEFF0E0BF010E948031832F90E0880F2C
:101A4000991F35E5369FD001379FB00D11248A1BB1
:101A50009B0B982F990F980F6F01CC1ADD0AC09E2F
:101A6000D001C19EB00DD09EB00D11248B2F499F87
:101A7000A0011124452F55276F01C41AD50AC09E15
:101A8000A001C19E500DD09E500D11245F01A91AD6
:101A9000B108AC9E6001AD9ED00CBC9ED00C112450
:101AA000CD2CDD24EC19FD09E09FE001E19FD00D74
:101AB000F09FD00D1124ED2F62307105A1F050F48C
:101AC0006115710509F49ECF6130710581F0EB2F2E
:101AD000852F98CF6430710569F080F0663071050C
:101AE00009F490CFF4CFE22F2B2F8D2F8BCFE22F45
:101AF000252F88CFEB2F822F2D2F84CF2B2F8F2DAB
:101B0000E52F80CF9F92AF92BF92CF92DF92EF925C
:101B1000FF920F931F93CF93DF936C018091350158
:101B2000C82FCC0FCC0FC80F15E01C0FB12E1133EE
:101B300010F030E3B32E6091CD08669566958091E4
:101B4000C5089091C6080E94E40CF82E80E48F0D21
:101B50000E946D0C90E8A92EA80E8F2D0E946D0C8E
:101B600020E8922E980ED0E0CB1580F081E0103363
:101B700008F080E0DF91CF911F910F91FF90EF90DF
:101B8000DF90CF90BF90AF909F900895FE01EC5FE3
:101B9000FC4F8081909136018923A1F06091CA08A1
:101BA0007091CB088091CC08EF2C0C2F292D4A2D59
:101BB000F60109950E94EE0C462F282F672FCE01C3
:101BC0000E947F0A2196D0CF7F928F929F92AF92F0
:101BD000BF92CF92DF92EF92FF920F931F93CF931A
:101BE000DF935C0180913501C82FCC0FCC0FC80F5B
:101BF00015E01C0FF12E113310F030E3F32E60913D
:101C0000CD0866958091C5089091C6080E94E40CA5
:101C1000782ED0E0CF1590F081E0103308F080E00E
:101C2000DF91CF911F910F91FF90EF90DF90CF90B8
:101C3000BF90AF909F908F907F900895FE01EC5FD2
:101C4000FC4F8081909136018923C9F1CE01880F24
:101C5000991F805B9D4FFC01EC5AFF4F2081422F62
:101C60004057550B6A018B5A9F4FFC018081282FEA
:101C70002052330B4901449F9001459F300D300D98
:101C80001124889CC001899C900D900D1124820F15
:101C9000931F0E948C0C082F6091CA087091CB088A
:101CA0008091CC08E72C9401A601F50109950E94CA
:101CB000EE0C462F282F672FCE010E947F0A219617
:101CC000A9CFCF92DF92EF92FF920F931F93CF9302
:101CD000DF937C0180913501C82FCC0FCC0FC80F4A
:101CE00015E01C0FD12E113310F030E3D32E60918C
:101CF000CD0866958091C5089091C6080E94E40CB5
:101D0000C82ED0E0CD1568F081E0103308F080E0F7
:101D1000DF91CF911F910F91FF90EF90DF90CF90C7
:101D20000895FE01EC5FFC4F80819091360189237C
:101D300011F1CE01880F991F805B9D4FFC01EB5A7A
:101D4000FF4F20812052330B8C5A9F4FFC01408162
:101D50004057550B6091CA087091CB088091CC0810
:101D60000C2DF70109950E94EE0C462F282F672FA6
:101D7000CE010E947F0A2196C5CFDF92EF92FF929B
:101D80000F931F93CF93DF937C0180913501C82F70
:101D9000CC0FCC0FC80F15E01C0F012F113308F02A
:101DA00000E36091CD08669566958091C508909195
:101DB000C6080E94E40CD82ED0E0C01760F081E085
:101DC000103308F080E0DF91CF911F910F91FF90C9
:101DD000EF90DF900895FE01EC5FFC4F80819091C1
:101DE0003601892391F06091CA087091CB088091E7
:101DF000CC082D2D4C2FF70109950E94EE0C462F93
:101E0000282F672FCE010E947F0A2196D6CF90916E
:101E10005D0892FF06C0282F28712830F9F4877FCB
:101E2000846093FF06C0282F28712831F1F4877E43
:101E3000846120915E0820FF06C0382F3871383049
:101E4000D9F4877F816021FF06C0282F28712831AF
:101E5000D1F4877E816194FD877E0895282F2471B7
:101E60002430F9F68B7F8860DCCF282F2471243151
:101E700001F78B7E8861DDCF382F3171313019F752
:101E80008E7F8860E0CF282F2171213121F78E7E4F
:101E90008861E1CFCF93DF93972F70E026E0929F88
:101EA000600D711D1124FB0134E5839FE00DF11DD0
:101EB0001124EE0FFF1FEA51FB4FC591D491CE01C3
:101EC000C238D105B9F1E8F5C133D10509F499C09B
:101ED00050F5C932D10509F48DC0CA32D10509F4D3
:101EE00097C0C11521E5D20708F0BFC0C11530E584
:101EF000D30708F016C1C83ED10508F09DC0C03E0A
:101F0000D10568F5C83AD10508F089C0C53AD105B0
:101F100008F0FFC0C130D10511F1209709F443C08A
:101F20002497E8F440C0C533D10509F45CC0C93337
:101F3000D105B9F620915D08237089F080EE90E01C
:101F40000EC0C33ED10591F168F4C03ED105F9F051
:101F5000C23ED10531F620915D0822FD20C0DF91FF
:101F6000CF910895C63ED10561F1C73ED10581F1FB
:101F7000C43ED10509F0B5CF20915E0821FFEFCF17
:101F800080915D0884FD0FC087EE90E0E8CF20913E
:101F90005D0820FD12C130915E0830FFE0CF83EE76
:101FA00090E024FFDCCF90E080E0D9CF20915D0865
:101FB00022FD06C130915E0830FDC0CF24FFCFCF97
:101FC000F2CF20915D0823FFCACF24FDECCFDCCFF8
:101FD00020915D0823FDF7C030915E0831FFEECF00
:101FE00084EE90E0BCCF20915D0825FFB8CF89E258
:101FF00090E0B5CF20915D0825FFB1CF85E390E05B
:10200000AECF20915D0826FFAACF8AE290E0A7CF4D
:1020100020915D0826FFA3CF81E390E0A0CFCF3BC6
:10202000D10508F6C85AD0E0CC0FDD1FCD5EDD4FDC
:1020300088819981946493CFC11520E2D20760F41E
:10204000C11531E0D30708F08ACFCE019065C03FBB
:10205000D10508F084CFA7CFC11580E4D80708F4D4
:10206000A2CFCE019F70906A7ACFC11595E5D907AE
:1020700010F5C11524E5D20708F088C0C11533E575
:10208000D30708F06FC0C11582E5D80708F465C012
:102090009E012370332781E090E002C0880F991FD2
:1020A0002A95E2F7C695C69520E2C29FE001112469
:1020B0008C2B9D2B50C0C11599E5D907A0F4C115F3
:1020C00028E5D20708F067C0C11536E5D30708F048
:1020D0006ACF8C2F0E94070F90E0982F88278827BF
:1020E0009F7190623CCFC1158AE5D80708F458C0AB
:1020F000CE0190568115904208F055CF8D2F8F71EB
:102100000E94070F90E0982F882788279F718C2BBB
:10211000E8CFC55AD0E0C05FDD4F888190E0906481
:102120001ECF9E01E4E036952795EA95E1F72370EE
:102130008C2F86958695837030E2839FC001112491
:10214000922BC37021E030E002C0220F331FCA95EA
:10215000E2F7822B932B9C6802CF9C2F8827816FFC
:10216000906AFDCE9E012370332781E090E002C08B
:10217000880F991F2A95E2F7C695C69530E2C39F4E
:10218000E00111248C2B9D2B9A68E9CE9C2F882787
:10219000846F906AE4CE9C2F8827806F906ADFCE90
:1021A0008C2F8F700E94070F34E0D695C7953A9513
:1021B000E1F7CF709C2F9069D2CE89E390E0CFCE2B
:1021C00082EE90E0CCCE86EE90E0C9CEBF92CF9268
:1021D000DF92EF92FF920F931F93CF93DF938C01C7
:1021E000C0908C08D0908D08E0908E08F0908F08F9
:1021F0008091400890914108A0914208B091430815
:10220000C82AD92AEA2AFB2ACFE1D0E0BC2ED7017E
:10221000C6010C2E04C0B695A795979587950A948C
:10222000D2F780FD0EC0219788F7B12C8B2DDF915E
:10223000CF911F910F91FF90EF90DF90CF90BF90C3
:102240000895B8018C2F0E944A0F019761F3EECFD9
:10225000CF93DF93EC010E94E610BE01DF91CF9196
:102260000C944A0F0E942811292F2F7092959F706D
:1022700092509E3078F4E92FF0E0E257FA4C0C943B
:10228000A831803F19F020F4883E20F481E00895C1
:10229000843FE1F380E00895883EC0F3813FD1F7A9
:1022A000F5CF822F86958695869508959F92AF9259
:1022B000BF92CF92DF92EF92FF920F931F93CF9333
:1022C000DF9320E9289FE001299FD00D1124CA55F2
:1022D000DE4F10E000E0FE0164913196749131967A
:1022E0008491962F972B982BC1F420E040E060E07A
:1022F000C8010E947F0A0F5F1F4F2396003311050C
:1023000051F7DF91CF911F910F91FF90EF90DF90E8
:10231000CF90BF90AF909F9008950E94EE0C962EA4
:10232000B72EA82E6091CC0870E090E080E00E946B
:10233000913420E030E04FE753E40E94F0336B012A
:102340007C016A2D70E090E080E00E949334A70148
:1023500096010E941F350E946234A62E692D70E0FE
:1023600090E080E00E949334A70196010E941F35FF
:102370000E946234962E6B2D70E090E080E00E9407
:102380009334A70196010E941F350E9462342A2DC2
:10239000492DAECF27982F98089526982E98089506
:1023A00025982D98089556985E980895279A2F9A03
:1023B0000895269A2E9A0895259A2D9A0895CF92D7
:1023C000DF92EF92FF92CF936B017C010E94720823
:1023D000C82F0E94D3110E94D0110E94CD110E94DB
:1023E000CA11C150C73040F4EC2FF0E0E456FA4C6B
:1023F0000C94A8310E94DC11C701B601CF91FF9067
:10240000EF90DF90CF9008950E94DC110E94D911C7
:10241000F3CF0E94DC110E94D611EECF0E94DC1196
:102420000E94D911F8CF20982898219829982298AD
:102430002A9823982B9852985A9853985B983E98CC
:10244000469808958098889A8198899A84988C9A59
:1024500085988D9A86988E9A87988F9A0895CF93AB
:10246000DF9300D00F92CDB7DEB79091B8089430CB
:1024700019F589837B836A8383E08093E9008FEF7A
:102480009091E800815095FD06C095ED9A95F1F781
:1024900000008111F5CF8091E80085FF0DC050E06C
:1024A00040E063E070E0CE0101960E94200580913B
:1024B000E8008E778093E8000F900F900F90DF91E7
:1024C000CF910895BC0184E00C942F12BC0183E0ED
:1024D0000C942F129C0182E08093E9009FEF809181
:1024E000E800915085FD06C085ED8A95F1F7000062
:1024F0009111F5CF8091E80085FF0CC050E040E0DD
:1025000065E070E0C9010E9420058091E8008E77A7
:102510008093E8000895CF93DF93EC01809134011C
:102520008823B1F180915D0887FF32C060E283E0CB
:102530008093E9008FEF9091E800815095FD06C0EF
:1025400095ED9A95F1F700008111F5CF8091E800A3
:1025500085FF1BC08091340170E050E040E08111A4
:1025600004C050E040E068E070E0CE010E94200529
:102570008091E8008E778093E80080E2FE01A6E972
:10258000B8E001900D928A95E1F7DF91CF9108951F
:1025900068E081E0CDCFEF92FF920F931F93CF932E
:1025A000DF930E94D3110E94D0110E94CD110E948E
:1025B000CA1188E8E82EF12C8FEF90E0F7019183A3
:1025C00080830AE810E0F80191838083CCE8D0E0B2
:1025D000998388830E94DC11FFEF20E782E0F150AD
:1025E00020408040E1F700C000000E94D9119FEF19
:1025F000E0E7F2E09150E040F040E1F700C0000079
:102600000E94D6112FEF80E792E021508040904049
:10261000E1F700C000000E94D011EFEFF0E722E0E8
:10262000E150F0402040E1F700C000000E94CD11D1
:102630008FEF90E7E2E081509040E040E1F700C08A
:1026400000000E94CA1180914B088770FFEF8F9F96
:10265000C001112495958795959587959927F70140
:1026600091838083F80191838083998388830E947A
:10267000D3110E94D0110E94CD11DF91CF911F91F3
:102680000F91FF90EF900C94CA11CF9384E090E0EB
:102690000E944533C82F81E290E00E944533982F75
:1026A0008C2FCF9108956FEE7EEF90E080E00E9436
:1026B000873360E082E090E00E94693360E083E06D
:1026C00090E00E94693310924008109241081092E5
:1026D00042081092430860E084E090E00E94693371
:1026E00060E081E290E00E94693360E085E090E084
:1026F0000E94693360E086E090E00E9469336FEFEA
:1027000087E090E00E94693340E050E0BA0188E041
:1027100090E00E947B3360E08DE090E00E9469339E
:1027200040E050E0BA0188E190E00E947B3360E035
:1027300087E190E00E94693340E050E0BA018CE10B
:1027400090E00E947B3360E080E290E00E94693379
:1027500040E050E0BA0188E190E00E947B331092A3
:102760004B0810924C0810924D0810924E0884E0CD
:10277000806180934B0840914B0850914C086091C8
:102780004D0870914E088FE090E00E947B3340E04E
:1027900050E0BA0183E190E00C947B330F931F93D8
:1027A000CF93DF93082F000FEB0114E21093650322
:1027B000E6E6F3E0DE018D91819383E0E637F807EA
:1027C000D1F724E630E041E150E065E673E0802F88
:1027D0000E945531105F6096143B41F7DF91CF9115
:1027E0001F910F91089580917903882329F06BE759
:1027F00073E084E70E94CE131092790380917A03EC
:10280000882329F06BE074E087E70E94CE131092D2
:102810007A030895E5E6F3E06083418324E630E03F
:1028200042E050E0BF01880F0C945531EF92FF92C7
:102830000F931F93CF93DF93E82E062F10E00154E0
:102840001B4FF8018081882381F0F2E16F9FE00146
:102850001124C556DB4FF12C49916F2D8E2D0E940E
:102860000A14F39482E1F812F7CFF8011082DF9195
:10287000CF911F910F91FF90EF900895CF93DF9329
:10288000C82F4BE06DEF0E940A1440E06AE08C2FE5
:102890000E940A148FE39CE90197F1F700C0000041
:1028A00040E060E08C2F0E940A1440E061E08C2F31
:1028B0000E940A1440E066E08C2F0E940A1440E057
:1028C0006DEF8C2F0E940A14D0E040E06D2F8C2F0A
:1028D0000E940A14DF5FD231C1F740E06D2F8C2FC8
:1028E0000E940A14DF5FD432C1F740E06D2F8C2FB5
:1028F0000E940A14DF5FD43BC1F74BE06DEF8C2FD1
:102900000E940A1441E06AE08C2F0E940A1440E001
:102910006DEF8C2FDF91CF910C940A146F927F9200
:102920008F929F92AF92BF92CF92DF92EF92FF92DF
:102930000F931F93CF93DF930E94A03084E70E94F0
:102940003E1487E70E943E1460E5E62E61E0F62E15
:10295000D12CC12C72E1772EE8E08E2E912CAA2486
:10296000A394B12C66246394F701418150E0CA011D
:10297000849702810452110BC381C452DD0BF6010E
:10298000EE0FFF1FEE0FFF1FE05BFE4F2081237055
:1029900030E0FC0197FD379643E0F595E7954A95C1
:1029A000E1F7729EA001739E500D112445565B4FB6
:1029B000E40FF52FF11DB4010E949431A50101C06F
:1029C000440F8A95EAF78081842B8083F80117FDF4
:1029D000379693E0F595E7959A95E1F7729EC001D9
:1029E000739E900D112485569B4FE80FF92FF11D12
:1029F000C801B4010E949431A50101C0440F8A9519
:102A0000EAF78081842B8083FE01D7FD379683E02F
:102A1000F595E7958A95E1F7729EC001739E900D3A
:102A2000112485569B4FE80FF92FF11DCE01B401FB
:102A30000E949431A50101C0440F8A95EAF7808174
:102A4000842B808321543B4FF9016082FFEFCF1A22
:102A5000DF0A84E0E80EF11CE0E3CE16D10409F0B1
:102A600083CF60E084E70E94161461E087E7DF917E
:102A7000CF911F910F91FF90EF90DF90CF90BF907B
:102A8000AF909F908F907F906F900C9416141F932F
:102A9000CF93DF93EC01FC01EC5FFC4F8081682356
:102AA000A1F00E94FA31182F0E94FA31612F782F7D
:102AB0008091CC080E94EE0C462F282F672FCE0164
:102AC000DF91CF911F910C947F0ADF91CF911F91DD
:102AD0000895DF92EF92FF920F931F93CF93DF93AE
:102AE0008C01FC01EC5FFC4F8081682381F1D09068
:102AF000CB08D091CC08C091CA08EC2EF12C0E94D2
:102B0000FA31282FC7018C549F4F68E671E00E946C
:102B100094318E199F0997FD039695958795959504
:102B2000879523706C2F289F600D11247D2D8D2F8C
:102B30000E94EE0C462F282F672FC801DF91CF91FE
:102B40001F910F91FF90EF90DF900C947F0ADF911F
:102B5000CF911F910F91FF90EF90DF90089545E086
:102B600050E06CE170E089EC98E00C94593390915E
:102B7000C908937041F08093CA086093CB084093D2
:102B8000CC080C94AF150895E9ECF8E0438120E1FE
:102B9000421B08F440E08181628190E00C94B715FB
:102BA000E9ECF8E0438120E1420F08F44FEF818126
:102BB000628190E00C94B715E9ECF8E0628120E1C5
:102BC000621B08F460E08181438190E00C94B715AA
:102BD000E9ECF8E0628120E1620F08F46FEF818197
:102BE000438190E00C94B715E9ECF8E081814381D2
:102BF00062818850990B0C94B715E9ECF8E081815B
:102C000090E04381628108960C94B7159091C908B1
:102C1000937089F0811107C094609093C908109255
:102C200038010C94AF15893110F09066F6CF880FFB
:102C3000880F982BF2CF08958091C90886958695C4
:102C4000815009F488E10C9406168091C908869594
:102C500086958F5F893108F081E00C9406160C94FC
:102C60000616E9ECF8E0248130E1230F08F42FEF99
:102C700024830C94AF15E9ECF8E0248130E1231BA8
:102C800008F420E024830C94AF15E9ECF8E085E328
:102C900080838091390190913A01A0913B01818319
:102CA0009283A3838CE384830C94AF150E948E14CB
:102CB00090E080E00E9453338F3E9E4F21F00E94AF
:102CC00053130E94451645E050E06CE170E089EC3A
:102CD00098E00E9435338091C9088C7F11F40C94E0
:102CE0004516089580E290E0909329018093280191
:102CF0008091540381110EC00E94A03081E0809326
:102D000054032FEF83ED90E3215080409040E1F792
:102D100000C0000064E670E080E40E94A63090935A
:102D2000290180932801892B09F04EC064E670E0E8
:102D300080E00E9402319093290180932801892B21
:102D400009F042C064E670E080E00E940231909396
:102D5000290180932801892BB9F564E670E08FE39F
:102D60000E9402319093290180932801892B61F5FB
:102D70000E947C3164E670E080E40E94A63090936B
:102D8000290180932801892BF9F464E670E08CE036
:102D90000E9402319093290180932801892BA1F48C
:102DA00064E670E080E00E940231909329018093F4
:102DB0002801892B49F464E670E08FE30E94023118
:102DC00090932901809328010E947C3180912801F1
:102DD0000895CF93C82F873070F580912801909186
:102DE0002901892B89F564E670E080E40E94A63011
:102DF0009093290180932801892BD1F464E670E037
:102E000082E10E9402319093290180932801892B4D
:102E100079F481E090E001C0880FCA95EAF764E692
:102E200070E080950E9402319093290180932801DF
:102E3000CF910C947C318A30B9F040F4883071F035
:102E4000893079F0209A2898CF9108958C3091F0AC
:102E500070F08D30B9F73E9A4698F6CF219A2998AE
:102E6000F3CF229A2A98F0CF239A2B98EDCF529A3B
:102E70005A98EACF539A5B98E7CFCF93873050F5B3
:102E80008091280190912901C0E0892B71F464E6BA
:102E900070E081E40E94A63090932901809328017C
:102EA000892B31F0C0E00E947C318C2FCF910895A6
:102EB00084E690E00E94313197FF05C0909329018C
:102EC00080932801EFCFC82FC0951092290110924E
:102ED0002801E9CFCFB18FB1869586958C73C370E9
:102EE0008C2BC82FC095E1CF1F920F920FB60F9277
:102EF00011242F933F934F935F936F937F938F93FF
:102F00009F93AF93BF93EF93FF938091E10082FF74
:102F100009C08091E20082FF05C08091E1008B7FB3
:102F20008093E1008091DA0080FF24C08091D80076
:102F300080FF20C08091DA008E7F8093DA0080913C
:102F4000D90080FF9BC080E189BD82E189BD09B4C1
:102F500000FEFDCF81E08093B80880919308811135
:102F600009C00E94D0040E949D058091E200846007
:102F70008093E2008091E10080FF17C08091E20021
:102F800080FF13C08091E2008E7F8093E2008091E9
:102F9000E20080618093E2008091D800806280939B
:102FA000D80019BC85E08093B8088091E10084FFC7
:102FB00029C08091E20084FF25C080E189BD82E1C3
:102FC00089BD89B5982F917080FFFBCF8091D80083
:102FD0008F7D8093D8008091E1008F7E8093E10007
:102FE0008091E2008F7E8093E2008091E200816018
:102FF0008093E2008091B908882309F445C084E0F9
:103000008093B8088091E10083FF27C08091E2009F
:1030100083FF23C08091E100877F8093E10082E0FD
:103020008093B8081092B9088091E1008E7F809358
:10303000E1008091E2008E7F8093E2008091E200C7
:1030400080618093E20042E060E080E00E946B05D6
:103050008091F00088608093F000FF91EF91BF9124
:10306000AF919F918F917F916F915F914F913F9120
:103070002F910F900FBE0F901F90189519BC1092B2
:10308000B8081092930876CF8091E30087FD93E013
:103090009093B808B7CF78941F921FB61F9211244F
:1030A0008F939F93AF93BF9380914408909145086D
:1030B000A0914608B09147080196A11DB11D8093CB
:1030C000440890934508A0934608B0934708BF91E1
:1030D000AF919F918F911F901FBE1F9018952FB792
:1030E000F8948091440890914508A0914608B091C9
:1030F00047082FBF08950E946F189C01909178088F
:1031000080917908982B21F03093760820937508E8
:1031100090917A0880917B08982B21F03093730866
:1031200020937208E0915F08F0916008309731F0C9
:103130000480F581E02D87E798E0099408951092C6
:103140003D0810923C080E94CC0885E0E7E7F8E0D3
:10315000DF011D928A95E9F71092740810927108A8
:10316000109248080E947B1890E080E00E94990924
:1031700090E080E00C948309CF92DF92EF92FF926F
:10318000CF93DF9300D000D0CDB7DEB70E94DF1120
:103190006B017C0180919008882321F08091910837
:1031A000811115C0C0928C08D0928D08E0928E08D3
:1031B000F0928F080E949F180F900F900F900F9021
:1031C000DF91CF91FF90EF90DF90CF90089519821B
:1031D00082E08A83C701B6010E9472088B838EEF5A
:1031E0008C8364E0CE0101960E94BE06DBCF0F9374
:1031F0001F9341E050E060E070E004C0440F551FB1
:10320000661F771F8A95D2F7CB01BA01609570953A
:103210008095909500918C0810918D0820918E08D2
:1032200030918F0860237123822393231F910F9184
:103230000C94BC1890913B088095892380933B089F
:10324000282F277071F4282F082E000C330B9217AB
:10325000130639F08595859585950E94F71810928B
:103260003B0808950F931F9341E050E060E070E049
:1032700004C0440F551F661F771F8A95D2F78091AF
:103280008C0890918D08A0918E08B0918F088A01CA
:103290009B01082B192B2A2B3B2BC901B8011F912D
:1032A0000F910C94BC1860E070E0CB010C94BC183A
:1032B00060934008709341088093420890934308BC
:1032C0000C949F1810923E0880913401E6E3F3E0DD
:1032D000882359F080915D0887FF07C08EE1DF01E8
:1032E0001D928A95E9F70C949F1886E0F8CF1F93FA
:1032F000CF93DF93CDB7DEB7AA970FB6F894DEBFB2
:103300000FBECDBF8AEB98E02091F100FC01219324
:10331000CF01F8E0823C9F07B9F78091BB08893064
:1033200009F444C018F5823009F4B9C0833009F4B7
:103330006EC0813031F58091BA08813A11F58091E3
:10334000E800877F8093E8008091BE089091BF08D5
:10335000892B41F560E286E998E070E00E945D0605
:103360008091E8008B778093E8000BC08B3009F4E4
:103370006BC008F483C0823409F4A2C0853409F418
:10338000BCC08091E80083FF50C28091BA08909140
:10339000BB089A3008F049C2E92FF0E0ED55FA4C2D
:1033A0000C94A83160E090E080E0D7CF8091BA081B
:1033B000813239F78091BE089091BF08009711F0D3
:1033C0000297F9F68091E800877F8093E80080916A
:1033D000E80082FF17C09091F3008091F2000297FD
:1033E00029F48091F1008B7F813021F48091F100EC
:1033F000809395088091E8008B778093E8000E9485
:103400004C05BFCF8091B8088111E1CFBACF809130
:10341000BA08813A09F0B5CF8091BE089091BF08F3
:10342000892B09F0AECF8091E800877F8093E80078
:103430008091E80080FFFCCF809134018093F100FF
:103440008091E8008E77D9CF8091BA08813209F057
:1034500098CF8091BE089091BF08892B09F091CF39
:103460008091E800877F8093E8000E944C0580915E
:10347000BC08809334010E94621983CF8091BA08FE
:10348000813209F07ECF8091E800877F8093E80049
:103490000E944C058091BD088093940872CF809162
:1034A000BA08813A09F06DCF8091E800877F809358
:1034B000E8008091E80080FFFCCF80919408BECFA7
:1034C0008091BA08803C09F05CCF8091BE08909151
:1034D000BF08029739F58091BC089091BD08892BEF
:1034E00009F58091E800877F8093E8006BE170E048
:1034F00088E398E00E94FE0582CF8091BA08803C64
:1035000009F03FCF8091BE089091BF08079751F412
:103510008091E800877F8093E80062EB70E086E8A6
:1035200097E0E8CF8091EB0080628093EB0029CF99
:10353000803899F0823809F078C18091BE088F7088
:10354000873008F072C18093E9008091EB0085FB21
:10355000882780F91092E90006C08091B608909102
:10356000B708911182609091E800977F9093E800EE
:103570008093F1001092F1008091E8008E7751C1A4
:10358000882309F43FC1823009F04FC18091BC0803
:10359000811142C18091BE088F702FEF280F263015
:1035A00008F043C18093E9002091EB0020FF34C173
:1035B000933031F48091EB0080628093EB002CC15A
:1035C0009091EB0090619093EB0021E030E001C01E
:1035D000220F8A95EAF72093EA001092EA00809180
:1035E000EB008860EACF811120C11091BC081F77E1
:1035F0008091E3008078812B8093E3008091E80044
:10360000877F8093E8000E944C058091E80080FF4E
:10361000FCCF8091E30080688093E30082E0111189
:1036200083E08093B80801C18058823008F0FDC063
:103630008091BC089091BD088C3D23E09207A1F5D4
:1036400083E08A838AE289834FB7F894DE01139678
:1036500020E03EE051E2E32FF0E050935700E49188
:1036600020FF03C0E295EF703F5FEF708E2F90E078
:10367000EA30C0F0C7968D939D932F5F243159F7A0
:103680004FBF8091E800877F8093E8006AE270E096
:10369000CE0101960E945D068091E8008B778093B1
:1036A000E800C3C0C096E7CF2091BE083091BF08A4
:1036B000492F55274330510551F1A0F441305105B0
:1036C00009F459C06BE670E084E598E0423051059A
:1036D00009F0ABC02091E800277F2093E8000E940A
:1036E000FE05DACF4132510539F14232510591F1EF
:1036F0004F30510509F099C0EBE2F9E0649170E0B8
:1037000089E299E06115710509F48FC0E3CF99272B
:103710008130910571F0009731F0029709F085C072
:10372000E1EDF8E002C0E5E2F9E0649170E0CF017C
:10373000E9CFE3EFF8E0F9CF2330310508F075C0A9
:10374000220F331FF901E65BFD4F8081918169E013
:1037500070E0C0CF2330310508F067C0F901EE0FEB
:10376000FF1FEC5BFD4F808191812F5B3D4FF90185
:10377000608170E0C7CF62E170E08FEB98E0AACF84
:10378000803809F052C08091E800877F8093E8007C
:103790008091B9088093F100EFCE811146C010915D
:1037A000BC08123008F041C08091E800877F809308
:1037B000E8001093B9080E944C05112311F084E031
:1037C00005C08091E30087FDFACF81E08093B808BF
:1037D00042E061EC81E00E946B0542E061EC82E036
:1037E0000E946B0542E261EC83E00E946B0542E3BC
:1037F00061EC84E00E946B0542E360EC85E00E948E
:103800006B0513C08091BC08813079F481E093305E
:1038100009F080E08093B7081092E9008091E800F9
:10382000877F8093E8000E944C058091E80083FF29
:103830000AC08091E800877F8093E8008091EB00C8
:1038400080628093EB00AA960FB6F894DEBF0FBE9D
:10385000CDBFDF91CF911F9108951F920F920FB6A8
:103860000F9211242F933F934F935F936F937F9306
:103870008F939F93AF93BF93CF93DF93EF93FF9378
:10388000D091E900DF708091EC00C82FC17080FDFD
:10389000C0E81092E9008091F000877F8093F000EB
:1038A00078940E9477191092E9008091F000886066
:1038B0008093F000CD2BCF70C093E900FF91EF9182
:1038C000DF91CF91BF91AF919F918F917F916F9138
:1038D0005F914F913F912F910F900FBE0F901F90CE
:1038E0001895882379F19CEF980F913A38F4682F56
:1038F00084E393E00E9413080C94CC0890E2980FA4
:10390000983050F4877091E001C0990F8A95EAF7DA
:10391000892F0E94C508F0CF9BE5980F933020F4C3
:1039200090E080E00C94990998E5980F973120F485
:1039300090E080E00C948309803F20F00E94D5063F
:103940000C947B1808950C94711C8FE39CE90197EB
:10395000F1F700C0000080915603823079F028F41E
:10396000813039F0109256030895833011F085307C
:10397000C9F78EEA90E00E94A31CF4CF8BEA90E096
:10398000FACFCF93C82F882309F46EC08CEF8C0F29
:10399000813AB8F580913401882311F180915D0856
:1039A00087FF1EC0EC2FE695E695E695F0E0EC5C0F
:1039B000FC4F828190E04C2F477021E030E002C044
:1039C000220F331F4A95E2F782239323892B89F034
:1039D0006C2F84E393E00E9413080E94CC0809C076
:1039E000E6E3F3E08191C81799F383E0EC33F8073D
:1039F000C9F76C2F84E393E00E943D08CF910C94AB
:103A0000CC0880E28C0F883068F4C77021E030E089
:103A100001C0220FCA95EAF780913E08822B80935D
:103A20003E08ECCFEBE5EC0FE33040F4F0E0E05F74
:103A3000FD4F808190E0CF910C949909E8E5EC0F5F
:103A4000E73150F4F0E0EE0FFF1FED5EFD4F808197
:103A50009181CF910C948309C03F30F08C2F0E944C
:103A60009C07CF910C947B18CF9108950F931F93CF
:103A7000CF93DF93C62FD42F022FFC01828188239E
:103A8000A1F06093C4080E946F189093C3088093BC
:103A9000C208C77081E001C0880FCA95EAF7DF91BC
:103AA000CF911F910F910C9479098091C4086813EC
:103AB00038C08091C2089091C3080E940408883CD5
:103AC000910578F510E21D0FCD17B9F080E28C0F4B
:103AD000883040F4C77081E001C0880FCA95EAF7CA
:103AE0000E947209183048F481E09D2F977001C040
:103AF000880F9A95EAF70E947909802F0E94C11CCD
:103B0000802F0E94711C183098F4D77081E001C09A
:103B1000880FDA95EAF7DF91CF911F910F910C94FE
:103B20007209C77081E001C0880FCA95EAF7F3CF28
:103B3000DF91CF911F910F9108950C94C11C8EEAD3
:103B400090E00E949D1D8EEA90E00C94A31CCF9300
:103B5000DF93EC018881833031F40E949F1D0E9425
:103B60009F1D0E949F1D8881843020F0DF91CF919E
:103B70000C949F1DDF91CF910895FC0180818130CD
:103B800099F48185882339F081E0809356038EEA89
:103B900090E00C949D1D82858823B1F382E0809390
:103BA00056038BEA90E0F5CF8230C1F48185811114
:103BB0000FC08285811108C083E0809356038EEA8E
:103BC00090E00E949D1DE3CF84E08093560308950A
:103BD00085E0809356030E949F1DD9CF86E0F5CFE4
:103BE0004F925F926F927F928F929F92AF92BF920D
:103BF000CF92DF92EF92FF920F931F93CF93DF93B9
:103C000000D000D00F92CDB7DEB77C01DC01139657
:103C10008D919C911497892B41F01C911196DC9009
:103C2000812F8D218F3F09F0C1C70F900F900F900A
:103C30000F900F90DF91CF911F910F91FF90EF9018
:103C4000DF90CF90BF90AF909F908F907F906F90BC
:103C50005F904F9008950E94E610082F682F898189
:103C60009A810E943A09E12FF0E0B6E0DB9EE00D78
:103C7000F11D112424E5029FE00DF11D1124EE0F2A
:103C8000FF1FEA51FB4F05911491D70112968C91B9
:103C900081111FC08091C807882309F459C0980179
:103CA00024503D452330310508F061C191E00630D4
:103CB0001D4509F490E0F7012281291709F4CDC0D0
:103CC000813009F414C1823009F431C11092C8075F
:103CD000C4C080912601909127010196D9F260E13C
:103CE000C62E61E0D62EB12CA12C992493948091FC
:103CF0002601909127018A159B0564F2F6018681C1
:103D00008823F9F0818592858017910739F4809195
:103D1000C9079091CA078017910799F0D6011F969D
:103D20009C921F971C961C930E931B9751968C91F7
:103D3000811103C0C6010E94BB09C60106960E94FC
:103D4000DC09BFEFAB1ABB0AE6E1CE0ED11CCFCF28
:103D5000D70112968C9181110CC00530BDE51B076F
:103D600009F48AC008F040C00430FDE51F0709F4DB
:103D700061C080919008882321F080919108811181
:103D8000FFC60A32BDE51B0709F442C10B32EDE55F
:103D90001E0709F419C2033CFCE51F0709F03CC2E9
:103DA000D70112968C91882309F457C0909136015F
:103DB00080914B089F3F09F028C2109236018F7EF8
:103DC00080934B0840E060E080E00E947D0A4091D3
:103DD0004B0850914C0860914D0870914E088FE04F
:103DE00090E00E947B3339C007302DE5120709F4BB
:103DF00058C008303DE5130709F0BBCFC0900C0157
:103E0000D0900D0180908C0890908D08A0908E0825
:103E1000B0908F080E9462190E94531900EC17E0BD
:103E2000C016D10609F452C0C8010E94F01D065008
:103E30001109F6CF11E01093C5040E946F180E947B
:103E4000DC110E9462190E94531986EC94E0909351
:103E5000C7078093C6071093C80780913B088770F7
:103E600009F4E3CED70112968C91882309F4DDCEB4
:103E700082E00E941A19D9CE81E08093C5040E9485
:103E80006F180E94DC110E9462190E94531980EC85
:103E900097E09093C7078093C60782E08093C80796
:103EA000DCCFC0900E01D0900F0180908C089090D4
:103EB0008D08A0908E08B0908F080E9462190E9411
:103EC000531906EC14E0C016D10659F40E94621989
:103ED00080928C0890928D08A0928E08B0928F08E4
:103EE000BCCFC8010E94F01D0A5F1F4FECCF0091AC
:103EF000C6071091C7071092C50460918C08709195
:103F00008D0880918E0890918F080E94DF11F4E057
:103F1000063C1F0729F0F80136978281811105C000
:103F200010930F0100930E01D1CE8F01F0CF0091BD
:103F3000C6071091C7071092C50460918C08709154
:103F40008D0880918E0890918F080E94DF1127E0E4
:103F5000003C120729F0F80136968281811105C0D4
:103F600010930D0100930C01B1CE8F01F0CF813081
:103F700031F1823009F0FDCE20910E0130910F0118
:103F8000A091C607B091C707F7018281811105C0D2
:103F9000F7E0A03CBF0709F4ECCECD010696281748
:103FA000390709F4E6CE86E0F70101900D928A9573
:103FB000E1F78091C6079091C707069722C020912C
:103FC0000C0130910D01A091C607B091C707F70110
:103FD0008281811105C0F4E0A63CBF0709F4C9CE77
:103FE000CD0106972817390709F4C3CE86E0F701FB
:103FF00001900D928A95E1F78091C6079091C707CD
:1040000006969093C7078093C607B3CE81E1BFC5DC
:10401000D70112968C918823C9F180914B0891E0C9
:10402000980F9770887F953008F4892B80934B0800
:1040300080914B088770BFEF8B9FC001112495952D
:104040008795959587959927909389008093880007
:1040500090938B0080938A0090938D0080938C00C6
:1040600040914B0850914C0860914D0870914E085A
:104070008FE090E00E947B3360918C0870918D08F6
:1040800080918E0890918F080E94DF11C80197558A
:104090008F3F910511F008F013C120912601309156
:1040A00027012817390724F49093270180932601CC
:1040B000D70112962C91129736E1389F5001399F03
:1040C000B00C1124F501E05FFE4F6F01208B1296BA
:1040D0009C918681992309F4E6C0128701878F5F3E
:1040E00086830E946F18D6011E969C938E931D970F
:1040F00080913F0817968C93179780913D08909177
:104100003E08892B18968C931897ED91FC91119786
:10411000309739F054966D917C91C5018A5E9E4F1F
:1041200009951093CA070093C907D70112969C916D
:10413000992309F44DC51092C4080230BCE51B0751
:1041400008F4CBC10631ECE51E0738F098012B5F6F
:104150003C452730310508F0C0C10E9445139093BB
:104160005E0880935D080F30FCE51F0709F496C1D7
:1041700008F017C108303CE5130709F479C108F0CD
:10418000EAC004309CE5190709F466C108F0D2C002
:104190000230BCE51B0709F45BC180915D088260B9
:1041A00003301C4509F4E9C060915D0810915E0878
:1041B00084E090E00E946933612F81E290E00E94E8
:1041C00069330E94621949CEF7018281882309F47C
:1041D0005DCF90914B08892F877F93FF88608093F4
:1041E0004B0883FF05C040E060E080E00E947D0A4C
:1041F00040914B0850914C0860914D0870914E08C9
:104200008FE090E00E947B3341CF9FEF9093360187
:10421000806180934B08DBCD0D32BDE51B0731F18A
:1042200078F40C32FDE51F0709F030CFD701129664
:104230008C91882309F411CE81E00E942F160DCEB7
:104240000E322DE5120709F10F323DE5130709F093
:104250001DCFF7018281882309F4FFCD81E00E9400
:104260002F164FEF6FEF8BE190E00CC0F7018281CA
:10427000882309F4F2CD81E00E942F164FEF6FEFF3
:104280008CEA90E00E94B715E8CDD70112968C9188
:10429000882309F4E2CD81E00E942F1640E86FEFF9
:1042A00086E590E0EFCF882309F43FCF818988230A
:1042B00009F43BCFC5018A5E9E4F0E94DC0935CFD1
:1042C000043FFCE51F0739F188F4093D3CE513077D
:1042D000F1F00A3D8CE5180751F1083D9CE51907FE
:1042E00009F023CF26E241EE61EE0DC0063FACE5BA
:1042F0001A07C9F0A0F027E245EE66EE073FECE5AD
:104300001E0709F012CFC7010E94361DA6CD27E275
:1043100045EE65EEF8CF26E241EE60EEF4CF27E2FF
:1043200045EE64EEF0CF26E241EE62EEECCF28E2FD
:1043300041E0EFCF80915D0880610630FCE51F070A
:10434000E1F080915D08886007301C45B0F08091F5
:104350005D08806212C00B303CE5130709F496C07B
:1043600078F409309CE5190709F486C080915D084E
:104370008C600A301C4509F017CF80935D0814CF7C
:1043800080915D088B7F0D30BCE51B07B1F38091F8
:104390005D088D7F0E301C4580F380915D08877F1E
:1043A000ECCF0B3FFCE51F0709F45AC048F502317A
:1043B0003CE5130709F47AC060F400319CE5190765
:1043C00009F470C080915D088F7B01311C45A9F212
:1043D000EBCE0431BCE51B0709F476C008F46CC0D1
:1043E00005311C4509F0E0CE80915D0882FB9927DC
:1043F00090F921E0922790FB82F990FB83F9BDCFE1
:104400000E3F2CE5120709F445C070F40C3F8CE513
:10441000180751F180915E088E7F0D3F1C4509F011
:10442000C3CE80935E08C0CE0115ADE51A0709F42E
:1044300047C040F101301D4509F0B6CE80915E08BD
:10444000982F909591708E7F892B90FB81F9E9CF01
:1044500080915D08816091CF80915D0884608DCFEF
:1044600080915E088160DDCF80915E088260D9CF47
:1044700080915D08806481CF0E94621980915D08FF
:1044800080687BCF80915E088360CBCF80915D0890
:104490008E7F73CF80915E088D7FC3CF80915D0842
:1044A0008F7E6BCF80915D088F7D67CF0E946219F0
:1044B00080915D088F7761CF80915D08837F5DCFAC
:1044C00080915E088C7FADCF0E94621990915D084B
:1044D000892F97FB87F9805850CF80913E0806318D
:1044E000FCE51F0709F082C38A7A91E009F490E0A5
:1044F0009093CB0769E2811165E384E393E00E9426
:104500003D080E94CC08A9CC8091C90891E0892778
:104510008093C908109238010E94AF159ECC4CE1DF
:1045200056E165E276E10E94260A97CC45E256E123
:104530006CE176E1F8CF44EF55E16DEF75E1F3CF33
:104540004DEF55E164EF75E1EECF4CED55E168EECE
:1045500075E1E9CF48EE55E16CED75E1E4CF44EC4F
:1045600055E160ED75E1DFCF40ED55E164EC75E1BB
:10457000DACF4BE356E161E376E1D5CF41E356E193
:104580006BE376E1D0CF85E058CE8DE056CE82E168
:1045900054CE0F3D2CE5120709F446C009303DE525
:1045A000130709F444C001151C4509F047C00E94D7
:1045B00062199FEFA4E3BCE09150A040B040E1F746
:1045C00000C00000F89481E08093E00080E28093D6
:1045D000D8001092C900EFE1FEE43197F1F700C076
:1045E00000001DBA109268001CBC10BE1FBA1092C9
:1045F0007A0010926E0010926F001092710010926B
:1046000072001092C9001092BC0014B817B81AB802
:104610001DB810BA1092BC0015B818B81BB81EB857
:1046200011BA0C94003F19CC0E94531316CC809100
:10463000920891E08927809392080FCCF7010081BE
:104640001181992309F440C0C8010E94E610D82EB8
:10465000682FC8010E943A09B8018D2D0E944A0FA7
:104660008C01882ED7011596AC901597A2944FE037
:10467000A4221296DC90D11010923D0880913B0844
:10468000877099F0DD2089F0812F807F803421F0C0
:1046900080E2800F883048F082E00E941A198091F1
:1046A0003B088770CC24C3948111C12CB12EB294E5
:1046B0003FE0B322BBE0BB1508F43DC0EB2DF0E0BA
:1046C000E355FA4C0C94A831C8010E941109D82E68
:1046D000C3CFE12FEF70AE2E107F19F0A29420EF20
:1046E000A222DD20C9F0AA2069F080E2800F883084
:1046F00010F081100BC080913E08A82AA0923E08BD
:104700000E94CC08802F0E94C11C15C080913D08DA
:10471000A82AA0923D08F4CF802F0E94711CAA20E5
:1047200051F0005E083010F0811043C08A2D0E94C5
:10473000C5080E94CC08AB2DA850BB0B149710F4F1
:104740000E94AF09CC20A9F080913B0880FD11C0E8
:10475000F70112828595859585950E943219C701CA
:104760000E94F01D80913B088595859585950E9456
:10477000F71885E0F701DE01119601900D928A95F8
:10478000E1F789819A810E9411099A81E981F0E01B
:1047900026E0929FE00DF11D112434E5839FE00D8A
:1047A000F11D1124EE0FFF1FEA51FB4F85919491EB
:1047B0003CCAA09480913D08A822A0923D08B9CFA0
:1047C000F12FFF709F2E107F103219F0929490EF0E
:1047D0009922882041F021E0821631F1DD2079F123
:1047E000AA2041F18FCFDD2091F090913F08892FD1
:1047F0008929A11003C00E9479099DCF31E0A3123D
:10480000FACF981709F497CF80933F0894CFA1105F
:1048100006C00E94BF08892D0E9472098CCF81E0DA
:10482000A81609F488CFF5CFDD2031F091E09A1574
:1048300008F481CF892DDFCFA1107DCFECCFAA2046
:1048400051F3A9E38A1209C0BFEFE7EEF3E0B150DC
:10485000E040F040E1F700C00000802F0E94711C92
:104860006ACF812F86958695837061F0813009F03B
:1048700062CFC8019370D11002C090E080E00E9426
:10488000830959CFC8019370D11002C090E080E035
:104890000E94990950CF802FDD2029F00E949C07AB
:1048A0000E947B1848CF0E94D506FACF812F8370D3
:1048B00009F066C0D1103FCF802F82958695877012
:1048C000880F880F602F6F70462E512C712C612C31
:1048D000082E04C0440C551C661C771C0A94D2F7A1
:1048E00040E050E0BA0104FF0FC04FE050E060E04C
:1048F00070E004C0440F551F661F771F8A95D2F7DA
:104900004095509560957095812F8695869583701A
:10491000823019F1D8F4009140081091410820919B
:10492000420830914308813069F0442955296629AD
:104930007729CB01BA0160237123822393230E943C
:104940005819F9CE402A512A622A732ACB01BA019A
:104950006429752986299729F2CF44295529662982
:104960007729009140081091410820914208309128
:104970004308CB01BA016027712782279327DFCF35
:104980008695DD2011F0812F8170882309F4D3CE24
:10499000802F829586958770880F880F602F6F70A3
:1049A000462E512C712C612C082E04C0440C551C31
:1049B000661C771C0A94D2F740E050E0BA0104FF6D
:1049C0000FC04FE050E060E070E004C0440F551F9E
:1049D000661F771F8A95D2F7409550956095709520
:1049E000812F869586958370823019F1D8F40091D5
:1049F0008C0810918D0820918E0830918F0881309D
:104A000069F04429552966297729CB01BA01602329
:104A10007123822393230E94BC188DCE402A512AF1
:104A2000622A732ACB01BA0164297529862997293C
:104A3000F2CF442955296629772900918C081091D5
:104A40008D0820918E0830918F08CB01BA01602724
:104A5000712782279327DFCF1F70DD2029F0812F58
:104A60000E943219802FC7CE802F0E947209812F99
:104A70000E94F71860CE802F22EF821609F44EC0F4
:104A8000281578F030EF831619F191EF891609F4A3
:104A90003DC0DD2009F464C0A11034CE812F8F7198
:104AA0003AC0A3EF8A1609F43EC0B4EF8B12F1CFDF
:104AB000DD2009F44AC01F71812F0E943219F8E0ED
:104AC0001F9FC0011124836080933B08812F23C066
:104AD000DD20B9F0A1102FCE1F7161E070E080E001
:104AE00090E004C0660F771F881F991F1A95D2F7B0
:104AF00000918C0810918D0820918E0830918F08BC
:104B0000A6CFE1E0EA1508F416CEE6CF812F8F712B
:104B1000DD2009F4ADCF0E9432190DCE812F8F71A7
:104B2000DD20C9F3A5CFDD2069F01F7161E070E0E1
:104B300080E090E004C0660F771F881F991F1A95C8
:104B4000D2F769CF0E945319F6CD81E00E941A195D
:104B500021E02A1508F0EFCD82E00E941A19EBCD72
:104B6000AA2059F0893309F078CE3FEF87EE93E021
:104B7000315080409040E1F76ECE812F8F7178CF19
:104B80001982D70112968C91811140CA82E18A83E1
:104B9000D7018C918B8311968C918C838EEF8D83B2
:104BA00065E0CE0101960E94BE06EBC885E0F701E4
:104BB000DE01119601900D928A95E1F7F7012281AD
:104BC00089819A81211147C80E941109082F4BC879
:104BD00006311C4509F032CD8091CB0769E2811185
:104BE00065E384E393E00E9413088BCC8272F801A2
:104BF000E35CFC45E431F10508F0CBCCE754FA4C1A
:104C00000C94A8311F93CF93DF938091D107807FBD
:104C1000A9F48091CE07882389F080910308D09170
:104C2000D2076091CC077091CD07A091CF07B091CA
:104C3000D007C62FC72316E0D81304C0DF91CF9149
:104C40001F91089590E0109711F0CF3F19F401964D
:104C50008770F2CF189F9001199F300D1124F90130
:104C6000ED52F84F41814713F2CF40814613EFCF09
:104C700042814111ECCF438154814A1B5B0B483C7C
:104C8000510528F78091D1078F7080618093D107FB
:104C9000F901E852F84F80818F70806180838CEC3D
:104CA00097E00E94F01DDF91CF911F910C9468094D
:104CB000AF92BF92CF92DF92EF92FF920F931F932A
:104CC000CF93DF93CDB7DEB761970FB6F894DEBF11
:104CD0000FBECDBF8C0185E0F801DE011D9601906D
:104CE0000D928A95E1F7F80180819181E2802CECA8
:104CF000A22E27E0B22E6091CF077091D0076115E8
:104D0000710509F43EC13091CC074091CD07232FA6
:104D100024232F3F09F435C1C380D480F090CE07FF
:104D2000F601E61BF70BFF2009F4FBC02091D10729
:104D3000522F507FE83CF10508F0BBC0511178C0FC
:104D4000FE2C491321C038131FC0E1101DC02F7065
:104D500020612093D107C5010E94F01D8091D107E9
:104D6000F80185838F2D61960FB6F894DEBF0FBED4
:104D7000CDBFDF91CF911F910F91FF90EF90DF900A
:104D8000CF90BF90AF900895CD2829F0282F2923E8
:104D90002F3F09F014C120E0F22FF170DF2E20FF29
:104DA0003DC0209103084091D20756E0241315C05E
:104DB0008D879E878D859E850E942811292F22959B
:104DC0002F702230F8F0243020F59F70F9F0F801B0
:104DD0009581907FD9F4D12C1FC030E0529FF00113
:104DE000539FF00D1124ED52F84F6181961306C0C8
:104DF0006081861303C06281E61210C02F5F3F4FAF
:104E00002770D4CF9F7011F0882329F3805E8830FB
:104E100010F3C8010E94F01DFD2CA4CFEE2009F470
:104E2000A1CF8091D10781608093D107F12C9ACFD7
:104E3000491312C0381310C0E1100EC0F8012583C9
:104E4000C8010E94F01D86E0F801ACECB7E00190CB
:104E50000D928A95E1F786CF8D879E878D859E85F9
:104E60000E943211882309F1EE20F9F08091D107D8
:104E7000803270F02091CC073091CD0738872F8396
:104E80001986DB86CA868C87CE0107960E94F01DA4
:104E900086E0F801ACECB7E001900D928A95E1F75D
:104EA0000E940226FF24F3945DCFC8010E94F01DEA
:104EB000F9CF51110AC08CEC97E00E94F01D86E0FA
:104EC000F50111928A95E9F7B1CF49130FC0381354
:104ED0000DC0E1100BC0F8012583C8010E94F01D30
:104EE00086E0F50111928A95E9F73CCF8D879E8780
:104EF0008D859E850E9432118823B9F2EE20A9F299
:104F00008091D107803220F22091CC073091CD07DB
:104F10003A8329831B82DD82CC828E83CE01019667
:104F2000B5CFE83CF105E0F6FE2CEE2009F4BDCF4C
:104F3000491316C0381314C08091D10780FD83CF68
:104F4000982F907F09F47FCFF8018583903F09F473
:104F500077CF982F907F905F8F70892B858370CF4C
:104F60008D879E878D859E850E943211811190CFFD
:104F70008091D10781608093D107C8010E94F01D04
:104F8000F1CEEE2009F491CF8D879E878D859E8589
:104F90000E943211F82E882309F487CF86E0F801A9
:104FA000ACECB7E001900D928A95E1F78091CC07C7
:104FB0009091CD070E9428110E940226D3CE21E0B5
:104FC0002E25EACE1F93CF93DF93CDB7DEB7679739
:104FD0000FB6F894DEBF0FBECDBF4B8B5C8B6D8BD5
:104FE0007E8B8F8B1A8A198A85E0FE017396DE010B
:104FF0001D9601900D928A95E1F786E0FE013D969F
:10500000DE01179601900D928A95E1F7CE01079681
:105010000E945826811112C086E0FE013796DE01FB
:10502000119601900D928A95E1F78A859B85892BCF
:1050300029F08F81988589238F3FB1F516E0809103
:1050400003089091D20789131DC067960FB6F89494
:10505000DEBF0FBECDBFDF91CF911F91089596E0C7
:10506000929FD001939FB00D1124AD52B84FFE0115
:10507000319601900D929A95E1F78093D2070E94A4
:105080006809DCCF819FC00111248D52984F0E9486
:1050900058268823D1F28091030890E0019687700A
:1050A000992780930308CBCF2091D20730E0C90124
:1050B000019687709927409103084817190679F6D9
:1050C0000E9462191092D2071092030886E0ECEC5D
:1050D000F7E0DF011D928A95E9F7B0CF8F929F929A
:1050E000AF92BF92CF92DF92EF92FF920F931F93F6
:1050F000CF93DF938091280190912901892BA1F012
:10510000809157038F5F8093570381110DC00E94D8
:10511000721690E09093290180932801892B21F445
:105120000E94CB120E945616FFE48F2EF8E09F2EAD
:10513000740100E010E0E7E0CE2EC10E812F0E9446
:10514000E9168C2D0E94E916812F0E943D17E70178
:1051500099917E01D12C891729F0FE013197808326
:10516000DD24D3948C2D0E943D17F7019681891779
:1051700009F47CC0868381E08D29082B0E941312DC
:105180001F5F1730C1F60E946F186091590370912C
:105190005A0390935A03809359032091580330E0A7
:1051A000261B370B820F931F6BEF70E00E9480313C
:1051B000E82E392F182F80935803F0905C03FF20BE
:1051C00009F4B1C310925C03E0914908F0914A08D8
:1051D000AF01425F5F4F20E07BEFB72E6BEF70E0D7
:1051E000A191AB3FA1F0CA2ED12C8E2D932F1A176F
:1051F00008F43EC08C199D09092E000CAA0BBB0BAC
:105200004E97A105B105D0F1DF011197BC924E1761
:105210005F0731F720935C03011102C0211185C3A0
:1052200010925B03A0914908B0914A0890915C03E9
:10523000E3E6F8E041E758E080E03191E4012991AC
:105240004E01321751F03C913B3FD1F41C93BF010A
:1052500061507109EB01288391E011964E175F07A9
:1052600061F790935C0380935B0363C380E084CF1A
:10527000DB01AC19BD098A0F9B1FBECF2F2DC7CFF5
:1052800081E0EBCFF89EF001F99EF00D1124E05F74
:10529000FE4FC288D388C114D10419F468ECC62E1D
:1052A000D12CF89EE001F99ED00D1124C05FDE4F95
:1052B0008E818823B9F08D859E850E940408C816CA
:1052C000D90680F41F9D600111248989811105C0D0
:1052D000C601805F9E4F0E94BB09C6018A5E9E4F39
:1052E0000E94DC091F5F812F90E020912601309100
:1052F00027012817390734F626C310923501409349
:10530000C5085093C6086093C7087093C80881E029
:105310008093380146C380910B01C1E018130BC084
:105320002091C908237080910A0190E0C1E02817FC
:10533000190609F4C0E0C170C0933701193140F477
:10534000E12FF0E0E353FA4C0C94A831C11102C0F4
:10535000C0E027C040E060E080E00E947D0AF8CF16
:1053600080913501C82FCC0FCC0FC80F45E0F42E2B
:10537000FC0EEF2CE0E3EF1510F430E3E32E609128
:10538000CA087091CB088091CC080E94EE0CD62EF2
:10539000C72EB82ED0E0CE15A8F1C1E02FE22F1510
:1053A000B8F2809135018F5F80933501C1110AC237
:1053B00082E08093380180913701811103C211236B
:1053C00009F41CC2809162088111EBC280914B08E4
:1053D00083FDE7C260918C0870918D0880918E08E2
:1053E00090918F080E947208823009F4EFC18330D7
:1053F00009F4EFC1813009F0EFC181E090E00E9433
:105400005611CFC2FE01EC5FFC4F808190913601B6
:10541000892331F02B2D4D2D6C2DCE010E947F0A5A
:105420002196B9CF80913501C82FCC0FCC0FC80F72
:1054300025E0F22EFC0EEF2C30E33F1510F490E344
:10544000E92EC090CB08D090CC08D091CA086D2F1F
:105450007C2D8D2D0E94EE0CB62EA72E982E6091DD
:10546000CD086D0F7C2D8D2D0E94EE0CD62EC72EF3
:10547000882ED0E0CE1530F0C1E09FE29F1508F0F5
:1054800090CF66CFFE01EC5FFC4F9081809136019A
:10549000892359F0282D4D2D6C2D90FD03C0292D09
:1054A0004B2D6A2DCE010E947F0A2196E3CF809179
:1054B0003501C82FCC0FCC0FC80F85E0F82EFC0E9D
:1054C000DF2CD0E3DF1510F4D0E3DD2EC090CB0845
:1054D000B090CC082091CD08B0E4EB2E3E2D329F49
:1054E000312D1124E32ED0E0CD1508F0C5CFFE01FB
:1054F000EC5FFC4F8081909136018923B9F0FE0169
:10550000EE0FFF1FEB55FD4F808182958F706091EC
:10551000CA088E9D600D11247C2D8B2D0E94EE0CEF
:10552000462F282F672FCE010E947F0A2196DCCFBD
:1055300080913501C82FCC0FCC0FC80FE5E0FE2EAF
:10554000FC0EDF2CD0E3DF1510F470E3D72EC090F3
:10555000CB08B090CC082091CD0860E4E62E3E2D1B
:10556000329F312D1124E32ED0E0CD1508F084CFE9
:10557000FE01EC5FFC4F8081909136018923D9F0C8
:10558000FE01EE0FFF1FEC55FD4F6081E69EB0015E
:10559000112455E0759567955A95E1F78091CA08F1
:1055A000680F7C2D8B2D0E94EE0C462F282F672F25
:1055B000CE010E947F0A2196D8CF80913501C82F55
:1055C000CC0FCC0FC80F35E0F32EFC0EEF2CD0E340
:1055D000DF1510F420E3E22ED090CA08D091CB085A
:1055E000C090CC086091CD086695669566958091CF
:1055F000C5089091C6080E94E40C0E946D0C80586A
:1056000087FD8195880F282F3C2D239F212D112464
:10561000822F6D2D7D2F0E94EE0CD62EC72EB82E18
:10562000D0E0CE1508F028CFFE01EC5FFC4F808162
:1056300090913601892331F02B2D4D2D6C2DCE010B
:105640000E947F0A2196EDCF88E79BE00E94BD0E65
:10565000C82FA7CE8EE49BE0F9CF8FE49CE00E9498
:10566000610EF6CF80E39CE0FACF85E19CE00E94DA
:10567000E40DEECF89EF9BE0FACF8CE49BE0E6CF20
:1056800083E49BE0E3CF8AE39BE0E0CF81E29BE011
:10569000DDCF83E19BE0EBCF8CEB9CE0E0CF88EEAD
:1056A0009BE0DDCF84ED9BE0E2CF86EE9AE00E94A6
:1056B000820DCECF88EB9AE0FACF81E89AE0F7CF5F
:1056C000C1111EC06091CD0820E1620F08F46FEF98
:1056D0008091C5089091C6080E94E40C6AE070E0D1
:1056E0000E948031892B09F033CE0E94FA3160E3A9
:1056F00070E00E949431609136010E94691551CE8C
:1057000080913501C82FCC0FCC0FC80F95E0D92E52
:10571000DC0E8D2DD0E3DD1508F480E3D0E0E82E1B
:10572000F12CCE15DF0534F0C1E0EFE2ED1508F005
:1057300038CE0ECE60913601CE010E9469152196B9
:10574000F0CFC1111EC06091CD0820E1620F08F4B6
:105750006FEF8091C5089091C6080E94E40C65E047
:1057600070E00E948031892B09F0F2CD0E94FA315D
:1057700060E370E00E949431609136010E94471509
:1057800010CE80913501C82FCC0FCC0FC80F85E00B
:10579000D82EDC0E8D2DF0E3FD1508F480E3D0E06B
:1057A000E82EF12CCE15DF0534F0C1E02FE22D15E7
:1057B00008F0F7CDCDCD60913601CE010E9447159E
:1057C0002196F0CF112309F4ECC0FCCD82E090E0EB
:1057D00016CE83E090E013CE809136018111E1C0B6
:1057E00040E060E00E947D0ADCC010930B018091D4
:1057F000C908837080930A010E94F31383E088CD67
:105800004091C5085091C6086091C7087091C808BA
:105810002FB7F8948091440890914508A0914608CC
:10582000B09147082FBF841B950BA60BB70B4A9767
:10583000A105B10508F4B5C010923801B2C091704D
:10584000892B09F4C0C08091630390916403813077
:10585000984780F01092920860918C0870918D08A2
:1058600080918E0890918F080E94DF11109264033E
:105870001092630380916303909164030196909367
:105880006403809363038091C504882369F00E94B8
:10589000D011809161038F5F80936103853610F092
:1058A0000E94DC110E946F18E0915F08F09160087F
:1058B000309751F10190F081E02D099581FF24C0CE
:1058C0000E94D611802FDF91CF911F910F91FF90F1
:1058D000EF90DF90CF90BF90AF909F908F90089502
:1058E0000E94D91177C0892B71F210926403109233
:1058F000630360918C0870918D0880918E0890915F
:105900008F080E94DF11BFCF60918C0870918D08C5
:1059100080918E0890918F080E947208833091F2D6
:105920000E94CA11CFCF01117BCC80915B03811102
:1059300077CC809126019091270110E056E1F52E59
:10594000019609F0D0CC8FB7F8944091440850915B
:10595000450860914608709147088FBF40935D03EA
:1059600050935E0360935F037093600380916208BD
:1059700010E0811108C08091C908182F137019F028
:10598000182F1695169580913801813009F4C3CCF3
:10599000882309F4B2CC823009F427CF833009F48C
:1059A0002FCF80916303909164032091920822236A
:1059B00009F499CF009709F042CF0E94D0110E94BC
:1059C000CD110E94CA11C0916203CC2309F488CF83
:1059D0000E94CD1181E0C827C093620334CFCDB7B8
:1059E000DEB7C955D1090FB6F894DEBF0FBECDBFE3
:1059F00084B7877F84BF0FB6F894A8958091600024
:105A0000886180936000109260000FBE80E890E093
:105A10000FB6F89480936100909361000FBE85B734
:105A2000806885BF85B7806885BF0E94D0040E94CA
:105A30009D058091E20084608093E20078948091DB
:105A4000B8088823A1F01091E9001F709091EC0034
:105A5000892F817090FD80E8182B1092E9008091C9
:105A6000E80083FD0E9477191F701093E90082E01F
:105A700084BD93E095BD9AEF97BD80936E000E9420
:105A8000721690E090932901809328010E941312CE
:105A90000E942212EFE4F8E063E6662E68E0762EBC
:105AA0008DE598E0D30111921D928E179F07D9F7CB
:105AB0008EE090E00E940A328093490890934A0851
:105AC000FC010E962BEF21938E179F07E1F790E0D4
:105AD00080E00E9453338F3E9E4F11F00E9453137B
