:100000000C94CA030C94E7030C94E7030C94E703E5
:100010000C94E7030C94E7030C94E7030C94E703B8
:100020000C94E7030C94E7030C94FD2D0C94CF2E55
:100030000C9448240C94E7030C94E7030C94E70316
:100040000C94E7030C94E7030C94E7030C94E70388
:100050000C94E7030C94B0240C94E7030C94E7038E
:100060000C94E7030C94E7030C94E7030C94E70368
:100070000C94E7030C94E7030C94E7030C94E70358
:100080000C94E7030C94E7030C94E7030C94E70348
:100090000C94E7030C94E7030C94E7030C94E70338
:1000A0000C94E7030C94E7030C94E7033F04420429
:1000B000450448044B044E04510454075A07610791
:1000C0006D07790785079107BD07C007CF07C307ED
:1000D000C807CD07CB0744094609510948094A0911
:1000E0004C094E0950095309550957096209590924
:1000F0005B095D095F09610964099F199F19D1199D
:10010000D119081A281A911BEF1B6A1AEF1B171B2B
:10011000171B881BEF1BEF1BE91B241B241B241B35
:10012000241B241B241B241B241B241B241B241BD7
:10013000241B241B241B241B241B351B421B491B73
:10014000501B5A1B7A1C7A1C8C1C8C1C831C8C1C0C
:100150008C1C8C1C7A1C7A1C881C8C1C8C1C881C8B
:100160003C2F632F5530632F5530AF2FD22F553092
:100170002830373007634236B79BD8A71A396856FC
:1001800018AEBAAB558C1D3CB7CC5763BD6DEDFDB9
:10019000753EF6177231BF000000803F05A84CCDB8
:1001A000B2D44EB93836A9020C50B9918688083CB1
:1001B000A6AAAA2ABE000000803F6572676F646F1E
:1001C000785F657A2F303564373436303564643182
:1001D000653434613066616336204020302E362E1F
:1001E0003230332D392D676434366433302D6469F1
:1001F000727479000000F0A129002B002A00E100B0
:10020000E00000001E00140004001D00E200AA002F
:100210001F001A0016001B00E30028002000080041
:100220000700060050002C002100150009001900ED
:100230005200A900220017000A0005000000C55C5A
:1002400035000153000002530000C65CC25CAE00E2
:100250000000AD000000C95C23001C000B00110071
:100260000000CA5C240018000D0010005100A672A6
:1002700025000C000E0036004F002C002600120056
:100280000F0037002F00280027001300330038002C
:100290003000E5002A0031002E002D7234000000ED
:1002A0002900E15CE25CE35CE45C00003A001E02D1
:1002B00020022202E55C01003B001F022102230212
:1002C0000100C95C3C002F0226022F000100CA5C1D
:1002D0003D00300227023000010001003E003102E3
:1002E000350035020000C35C010001000000010080
:1002F0000000010001000100000001000000C25CDC
:100300003F005200510024020000E05C4000240045
:1003100021001E00010001004100250022001F00F5
:100320003700C55C42002600230020002700C65C81
:1003300043002502010031002E0001004400450069
:10034000010001000100000029002B002A00E1004B
:10035000A96100001E00140050001D00AD64C65CC1
:100360001F00520051001B00AA682C00200008004A
:100370004F00060050002800210015000900190058
:100380005200C55C220017000A0005000000C35C93
:1003900035000100000001000000E05CE400AE74E4
:1003A0000000AD780000C95C23001C000B001100A8
:1003B0000000CA5C240018000D0010005100A67255
:1003C00025000C000E0036004F0028002600120009
:1003D0000F0037002F002C002700130033003800D7
:1003E0003000A6722A0031002E0056723400000040
:1003F00000000000000000002A2B28000000000080
:1004000000000000000000000000002900000000C3
:100410002C1E3420212224342627252E362D373831
:10042000271E1F202122232425263333362E37383A
:100430001F0405060708090A0B0C0D0E0F101112F8
:10044000131415161718191A1B1C1D2F3130232DC4
:10045000350405060708090A0B0C0D0E0F101112C2
:10046000131415161718191A1B1C1D2F3130354C73
:10047000000000000000000000000000000000007C
:10048000000000000000000000000000000000006C
:100490000001010101010100010101010000000052
:1004A0000000000000000000000001000100010148
:1004B000010101010101010101010101010101012C
:1004C000010101010101010101010100000001011F
:1004D000000000000000000000000000000000001C
:1004E0000000000000000000000000010101010008
:1004F00000047F3F1F643214643214783C1E1E14C3
:100500000A056801F000B40078005A0000000000FD
:1005100000010101010101010101020202020202C6
:100520000202020303030303030303040404040499
:10053000040505050505060606060607070707085C
:100540000808080909090A0A0A0A0B0B0B0C0C0C0B
:100550000D0D0D0E0E0F0F0F1010111111121213A1
:10056000131414151516161717181819191A1A1B1B
:100570001C1C1D1D1E1F1F20202122222324252577
:1005800026272728292A2B2B2C2D2E2F2F303132AE
:1005900033343536363738393A3B3C3D3E3F4041BF
:1005A000424344464748494A4B4C4D4F50515253A1
:1005B000555657585A5B5C5E5F6062636466676954
:1005C0006A6C6D6E707173747678797B7C7E8081D5
:1005D000838486888A8B8D8F91929496989A9B9D1E
:1005E0009FA1A3A5A7A9ABADAFB1B3B5B7B9BBBD2B
:1005F000BFC1C4C6C8CACCCFD1D3D6D8DADCDFE1FC
:10060000E4E6E8EBEDF0F2F5F7FAFCFF0403300066
:10061000000016034500720067006F0044006F0081
:100620007800200045005A000000160345007200C3
:1006300067006F0044006F007800200045005A00FA
:1006400000000403090409023B00020100A0FA09AA
:1006500004000001030101000921110100012240F1
:10066000000705810308000A0904010001030000D6
:100670000009211101000122C000070582032000AA
:100680000A1201100100000008EDFE07130100012D
:1006900002030105010902A10185020901A100056A
:1006A0000919012905150025019505750181029596
:1006B00001750381010501093009311581257F95F7
:1006C000027508810609381581257F950175088115
:1006D00006050C0A38021581257F950175088106EB
:1006E000C0C005010980A101850316010026030091
:1006F0001A81002A8300751095018100C0050C093C
:1007000001A1018504160100269C021A01002A9C01
:1007100002751095018100C005010906A10185053A
:10072000050719E029E715002501950875018102E3
:1007300005081901290595057501910295017503B3
:1007400091010507190029EF1500250195F07501A4
:100750008102C005010906A101050719E029E71575
:100760000025019508750181029501750881010533
:1007700008190129059505750191029501750391E7
:10078000010507190029FF150026FF0095067508C9
:100790008100C00011241FBECFEFDAE0DEBFCDBF65
:1007A00011E0A0E0B1E0EEEAF8E602C005900D929B
:1007B000A43DB107D9F723E0A4EDB1E001C01D923B
:1007C000A83BB207E1F70E941F2B0C9455340C9400
:1007D000000080B38C7080BB81B3836F81BB0895B0
:1007E00084B1807F84B985B1807F85B98AB1837FE8
:1007F0008AB98BB1837F8BB93E9846980895CF9381
:10080000E82F873090F58091000190910101892BAC
:1008100009F049C0CE2F64E670E080E40E948005B4
:100820009093010180930001892BD1F464E670E07C
:1008300082E10E94D7059093010180930001892BEA
:1008400079F481E090E001C0880FCA95EAF764E688
:1008500070E080950E94D70590930101809300017C
:1008600084E690E0CF910C942C0690E0FC01379741
:10087000E730F105C0F4EA5AFF4F0C94FA33209A9E
:10088000289811C0219A29980EC0229A2A980BC044
:10089000239A2B9808C0529A5A9805C0539A5B988D
:1008A00002C03E9A4698CF910895089508950C94F9
:1008B0005604CF93DF930E94BE0690E0909301010F
:1008C000809300010E94F0030E94E903A9E2B2E0D4
:1008D00025ED31E0E7E3F2E04EE04E0F11921D927C
:1008E00080E090E0E901C80FD91F18820196863098
:1008F0009105C1F72A5F3F4F4E13F0CFDF91CF91A3
:100900000C947F080E94BE0690E0909301018093B2
:1009100000010E94F0030E94E903E7E3F2E08EE0A9
:100920008E0F11928E13FDCF0895CF93DF93E62F94
:10093000F0E0E75DFD4F40814827808386E0689FB7
:10094000F0011124EB52FE4F20E030E080E061E046
:1009500070E050E0AAE0B22F9081992319F09150F5
:10096000908307C0EB01022E01C0CC0F0A94EAF776
:100970008C2BEA0102C0D595C795BA95E2F7C0FD68
:10098000A0832F5F3F4F31962630310521F7DF914D
:10099000CF910895CF93DF93D82F873008F040C0D0
:1009A0008091000190910101892B09F042C064E619
:1009B00070E080E40E948005909301018093000123
:1009C000892B11F0C0E027C064E670E083E10E944B
:1009D000D7059093010180930001892B99F764E674
:1009E00070E081E40E9480059093010180930001F2
:1009F000892B41F784E690E00E94070697FF05C027
:100A00009093010180930001DDCFC82FC095109213
:100A100001011092000184E690E00E942C060AC0B9
:100A20009FB1CFB1C07FC695C6959370C92BC095B5
:100A300001C0C0E06D2F8C2F0E949504282F2095B7
:100A4000ED2FF0E0E95CFD4F908192238C23892B00
:100A5000DF91CF910895EF92FF920F931F93CF9361
:100A6000DF938091000190910101892B91F0809199
:100A7000D4018F5F8093D40181110BC00E94BE0608
:100A800090E09093010180930001892B11F40E9462
:100A9000500687E3E82E82E0F82E0EE312E0C0E075
:100AA0008C2F0E94FF03D7E0DC0F8D2F0E94FF03E5
:100AB0008C2F0E94CA04F70181937F018D2F0E9421
:100AC000CA04F80181938F010E94F003CF5FC73001
:100AD00039F70E94870881E0DF91CF911F910F9134
:100AE000FF90EF900895E82FF0E0E95CFD4F8081E2
:100AF000089508951092B9008CE08093B80008958D
:100B0000EF92FF920F931F93CF93DF93182FEB0178
:100B10001092BC0084EA8093BC000E947A247C017D
:100B20009091BC0097FD0EC0CF3F8FEFD807C1F367
:100B30000E947A248E199F098C179D0788F38EEFE7
:100B40009FEF2EC09091B900987F983041F090911E
:100B5000B900987F903119F08FEF9FEF21C010936B
:100B6000BB0084E88093BC000E947A248C019091A1
:100B7000BC0097FD0CC0CF3F8FEFD807C1F30E9498
:100B80007A24801B910B8C179D0788F3D8CF809116
:100B9000B900887F883111F08034F1F680E090E070
:100BA000DF91CF911F910F91FF90EF9008950F93D8
:100BB0001F93CF93DF93EB018093BB0084E8809376
:100BC000BC000E947A248C019091BC0097FD0EC05D
:100BD000CF3F8FEFD807C1F30E947A24801B910B7F
:100BE0008C179D0788F38EEF9FEF0CC02091B90002
:100BF000287F81E090E0283211F480E090E0919528
:100C000081959109DF91CF911F910F9108950F93D5
:100C10001F93CF93DF93EC0184E88093BC000E9484
:100C20007A248C019091BC0097FD0EC0CF3F8FEFCE
:100C3000D807C1F30E947A24801B910B8C179D0763
:100C400088F38EEF9FEF03C08091BB0090E0DF91AF
:100C5000CF911F910F9108950F931F93CF93DF931F
:100C6000EC0184E98093BC000E947A248C0190916D
:100C7000BC0094FF0EC0CF3F8FEFD807C1F30E9496
:100C80007A24801B910B8C179D0788F38EEF9FEFC2
:100C900002C080E090E0DF91CF911F910F91089505
:100CA00056985E9825982D9826982E9827982F98D4
:100CB0008FEF90E0909389008093880090938B0051
:100CC00080938A0090938D0080938C00259A2D9AB2
:100CD0002FEF80E792E0215080409040E1F700C084
:100CE0000000269A2E9A2FEF80E792E02150804054
:100CF0009040E1F700C00000279A2F9A2FEF80E77D
:100D000092E0215080409040E1F700C0000025981B
:100D10002D982FEF80E792E0215080409040E1F73E
:100D200000C0000026982E982FEF80E792E0215017
:100D300080409040E1F700C0000027982F98569817
:100D40005E9825982D9826982E9827982F98089584
:100D500089EA8093800089E08093810024982C9810
:100D60003F988AB18F7C8AB96E98479A8BB180631D
:100D70008BB9769A0E9450060C94550480E290E05C
:100D800090930101809300018091450281110EC072
:100D90000E947A0581E0809345022FEF83ED90E376
:100DA000215080409040E1F700C0000064E670E010
:100DB00080E40E9480059093010180930001892BBB
:100DC00009F050C064E670E080E00E94D70590937F
:100DD000010180930001892B09F044C064E670E0B2
:100DE00080E00E94D7059093010180930001892B38
:100DF000C9F564E670E08FE30E94D7059093010186
:100E000080930001892B71F584E690E00E942C0606
:100E100064E670E080E40E94800590930101809375
:100E20000001892BF9F464E670E08CE00E94D7059C
:100E30009093010180930001892BA1F464E670E096
:100E400080E00E94D7059093010180930001892BD7
:100E500049F464E670E08FE30E94D70590930101A6
:100E60008093000184E690E00E942C0680910001AE
:100E70000895611108C0FC018281882321F08AEB6A
:100E800091E00E947C0880E090E00895FC01EF5D15
:100E9000FC45E730F10508F053C0DB01E35AFF4F92
:100EA00012968C910C94FA33882309F44AC00E945C
:100EB000662344C0882309F444C081E00E949C1149
:100EC0003DC08823F1F10E94B21181E00E949C1183
:100ED0004FEF6FEF80EF90E02FC0882391F10E94D9
:100EE000B21181E00E949C1140E86FEF88E790E02A
:100EF00023C0882331F10E94B21181E00E949C112D
:100F00004FEF6FEF86E290E017C08823D1F00E9488
:100F1000B21181E00E949C1140E86FEF8CE291E0F9
:100F20000BC0882371F00E94B21181E00E949C11D5
:100F30004FEF6FEF80E090E00E94BF1080E00895D7
:100F400081E00895CF92DF92EF92FF926B017C01D6
:100F50000E94A82256985E9825982D9826982E983B
:100F600027982F98482F50E0FA013197E730F10584
:100F7000C8F4EC59FF4F0C94FA33259A2D9A43C0CC
:100F8000269A2E9A4AC0259A2D9A269A2E9A50C0B1
:100F9000259A2D9A04C0259A2D9A269A2E9A279A38
:100FA0002F9A46C0813079F118F08230B1F140C0FB
:100FB0000E946B0F609361037093620380936303DD
:100FC0009093640360FF1CC00E94B2118091610382
:100FD00086958F730E949C1180916103881F8827DA
:100FE000881F90916203292F220F97FB992790F970
:100FF0004091640360916303822B0E94BF1018C06C
:101000000E94F81115C00E94EF1181E00E94BB11EF
:101010004FEF6FEF8DEE90E009C00E94EF1181E07D
:101020000E94BB114FEF6FEF88E090E00E945211D9
:10103000C701B601FF90EF90DF90CF90089581E057
:1010400008950C944607CF93282F30E0F901E05122
:10105000FC4FC491F901E059FB4F2491222359F030
:1010600081EE0E94BC178C2F0E94BC178C2F0E940F
:10107000F51881EE04C08C2F0E94BC178C2FCF91E5
:101080000C94F5180F931F93CF93DF93EC01062F69
:10109000FE018491882359F19E012F5F3F4F8130DB
:1010A00041F4E901F9011491812F0E94BC17812FAD
:1010B0000DC0823031F4E901F90184910E94BC171E
:1010C0000AC0833031F4E901F90184910E94F518D6
:1010D00002C00E9423082196802F8823C9F2EFE9DD
:1010E000FFE03197F1F700C000008150F6CFDF91AB
:1010F000CF911F910F91089560E00C9442080E94D7
:10110000F822811102C00E9466230C94A8060C9458
:101110005704282F2F7041F0822F90E02A3010F4CE
:101120004D9608950697089587E290E008950895F2
:101130000C9497080C94980808950E94681C0E94CB
:101140009C082FEF84E39CE0215080409040E1F721
:1011500000C000000C94D624FF920F931F93CF93EE
:10116000DF938C01FC01C081D181809190028111BB
:1011700013C08281882349F0CE010E949B21F82E62
:10118000682FCE010E943E2104C0CE010E946E2134
:10119000F82EBE018F2D04C0CE010E949B21BE01FE
:1011A0000E946B0BEC01B8010E942108882309F40E
:1011B0008AC2B801CE010E94E20D882309F483C2DD
:1011C000CC3CFCE5DF0741F4F8018281882309F477
:1011D0007AC20E94A80F77C2CD3C8CE5D80708F0F0
:1011E0001EC1C43C9CE5D90761F4F80182818823C3
:1011F00009F469C20E946C228272E1F40E94A91172
:1012000062C2C53CECE5DE0708F0C7C0C531FCE5AD
:10121000DF0798F0C23CFCE5DF0709F48CC008F456
:1012200092C0F8018281882309F44DC20E946C2289
:10123000827221F70E949F1146C2C2308CE5D80706
:1012400008F452C0F8018281882309F459C00E9431
:10125000F822811102C00E9466230E940B2390E0B5
:101260009093AA038093A903FE01E350FC45E23169
:10127000F10530F4E559FF4F8091A9030C94FA333E
:101280008091A903816027C0826025C0846023C04B
:10129000806121C080621FC080641DC080681BC047
:1012A0008460886018C08E7F16C08D7F14C08B7FCD
:1012B00012C08F7E10C08F7D0EC08F7B0CC08F77C9
:1012C0000AC08B7F877F07C087FB222720F991E028
:1012D000922790FB87F98093A9038091A9030E942C
:1012E0000F230E94681CEFC1C1159CE5D90781F04E
:1012F000C130DC45A9F081E080934B0280934C0221
:10130000C801DF91CF911F910F91FF900C941F089E
:10131000F8018281882309F4D6C10E949D08D3C1B7
:10132000F8018281882309F4CEC180912F03816066
:1013300080932F03C8C1F8018281882309F4C3C1B7
:101340000E941012C0C1C631DC45A9F60E946C2271
:10135000282FF801828140910F01509110018823BC
:1013600079F02A7A91E009F490E090934602911185
:1013700002C069E201C065E3CA010E94CD230AC030
:1013800080914602811102C069E201C065E3CA0191
:101390000E94D8230E94392296C1F8018281C83C5C
:1013A000FCE5DF0731F4882309F48DC10E940B119D
:1013B0008AC1C93C9CE5D907C8F4C63CECE5DE0708
:1013C00031F4882309F47FC10E94DA107CC1C73C44
:1013D000DC4530F4882309F476C10E94C21073C141
:1013E000882309F470C10E94F9106DC1CA3C9CE5C4
:1013F000D90731F4882309F466C10E94381163C10A
:10140000CB3CDC4530F4882309F45DC10E941D11FA
:101410005AC1882309F457C10E94930F54C1C43D97
:10142000FCE5DF07C1F4F8018281882309F44BC190
:101430000E94850F693171058105910540F00E9478
:10144000850F623271058105910508F4F3CE89E1BB
:101450000E949C1138C1C53D8CE5D80708F086C0B4
:10146000F8018281C03DFCE5DF07A1F4882309F47F
:101470002AC10E94850F693071058105910540F0F0
:101480000E94850F6E3071058105910508F4D2CE5A
:1014900089E0DECFC13D9CE5D907A0F5CE3CECE567
:1014A000DE07A1F4882309F40EC10E94850F623083
:1014B00071058105910540F00E94850F6530710529
:1014C0008105910508F4B6CE82E0C2CFCF3CDC4561
:1014D00028F4882309F4F7C081E0BACF882309F4FF
:1014E000F2C00E94850F663071058105910540F0BC
:1014F0000E94850F683071058105910508F49ACE28
:1015000086E0A6CFC23D9CE5D907A1F4882309F463
:10151000DAC00E94850F653171058105910540F0A3
:101520000E94850F673171058105910508F482CE0F
:1015300085E18ECFC33DDC45A0F4882309F4C3C008
:101540000E94850F6F3071058105910540F00E9462
:10155000850F643171058105910508F46BCE8FE02C
:1015600077CF882309F4AFC088E172CFC83DFCE58E
:10157000DF0759F5F8018281882361F010924C024F
:101580000E947A2490934A028093490280E20E944A
:101590005D1999C080914C02882321F080E20E945D
:1015A000641991C08091490290914A020E94862458
:1015B000883C910598F780E20E94641988E20E94B5
:1015C000BC1788E20E94F5187EC0C93D8CE5D8079B
:1015D00008F058C0F8018281C63DFCE5DF0751F5EF
:1015E000882351F010924B020E947A249093480273
:1015F0008093470282E0CBCF0E946C2285FF05C01A
:1016000081E080934B0280934C0280914B028111C8
:101610000FC080914702909148020E948624883C26
:10162000910530F486E20E94BC1786E20E94F5180C
:1016300082E0B5CFC73DDC4528F4882309F443C0D8
:1016400083E206CF81119ACF0E946C2281FF05C0F0
:1016500081E080934B0280934C0280914C02811177
:101660009DCF8091490290914A020E948624883C35
:10167000910508F093CF87E20E94BC1787E20E9491
:10168000F5188CCFCC3DECE5DE0741F4F801828102
:101690008823C9F082E00E94C02B15C0CD3DFCE537
:1016A000DF0739F4F8018281882369F00E946623FC
:1016B0000AC0CB3DDC4509F01ECEF80182818823AB
:1016C00011F080E0E8CF80E0DF91CF911F910F9182
:1016D000FF900895089596E0799FF001112494E514
:1016E000899FE00DF11D1124E60FF11DEE0FFF1F84
:1016F000E850FE4F859194910895880F991FFC0141
:10170000EC50FE4F859194910895CF93DF930E9402
:101710006B0B0E94420DEC01811520E59207F0F55C
:10172000811530E4930708F029C1883E910500F542
:10173000803E910508F0A2C1883A910570F4853A7F
:10174000910508F0A3C08130910509F497C108F410
:1017500048C1049708F092C144C18F3B910508F439
:10176000A0C0803C910508F43CC1805C9109F8C0A0
:101770008115904258F4C11581E0D80708F07EC168
:10178000C03FD10508F42DC1D06578C1C11590E3E3
:10179000D90708F0E9C0CE019F70E2C0811525E5A8
:1017A000920708F043C0811534E5930708F0FDC0A7
:1017B000811542E5940708F5C11581E5D80708F0C1
:1017C000E0C02C2F237081E090E002C0880F991FA9
:1017D0002A95E2F79C689E0174E0369527957A95E4
:1017E000E1F72370922BCF70C695C69540E2C49F57
:1017F000E0011124C82BD92B41C1869586959E0105
:1018000023703327C115D34508F0C0C040E2849F40
:10181000C0011124C1E0D0E002C0CC0FDD1F2A9529
:10182000E2F78C2B9D2BEC01DC6828C181152AE5A1
:10183000920798F4811539E5930708F0C1C0811526
:10184000964508F4B7C0C11588E5D80708F4C9C0A3
:10185000DC2FCC27C06FD06A11C1C1159BE5D90719
:1018600008F4BFC0C1152CE5D20708F4B7C0CE01FB
:1018700090568115904208F0B4C08D2F8F710E9450
:10188000BF0DDD27D0628F71D82BF8C0853A910546
:1018900009F4AAC0863A910509F0A9C0C2E8D0E4CB
:1018A000EDC0883A910509F4A5C0893A910509F47B
:1018B000A4C08A3A910509F4A3C08B3A910509F4B2
:1018C000A2C08C3A910509F4A1C08B3B910509F4A3
:1018D000A0C08C3B910509F49FC08D3A910509F495
:1018E0009EC0803B910509F49DC08E3A910509F494
:1018F0009CC08F3A910509F49BC0813B910509F486
:101900009AC0823B910509F499C0833B910509F483
:1019100098C0843B910509F497C0853B910509F473
:1019200096C0863B910509F495C0873B910509F463
:1019300094C0883B910509F493C0893B910509F453
:1019400092C08D3B910509F491C08E3B910509F43D
:1019500090C08A3B910509F48FC0C0E0D4E48EC0EA
:101960000E947D0BEC018AC0CE019927D3FF03C0F2
:10197000EC01D86C83C0EC01D06C80C0DF70D06A01
:101980007DC0DC2FCC27C16FD06A78C040E2849F35
:10199000C0011124C1E0D0E002C0CC0FDD1F2A95A8
:1019A000E2F7C82BD92BDA6869C0D82FCC27C46FCF
:1019B000D06A64C0CF71DD27DC2FCC27D0625EC037
:1019C0008F70806E90E0906A24E0D695C7952A9536
:1019D000E1F7CF709C013C2BE90150C0DD27D066B8
:1019E0004DC0C0E0D0E04AC0C1E8D0E447C0C3E881
:1019F000D0E444C0C2EED4E441C0C9EED4E43EC059
:101A0000CAEED4E43BC0C5EBD4E438C0C6EBD4E4A2
:101A100035C0C3EBD4E432C0C4EBD4E42FC0C7EB71
:101A2000D4E42CC0CCECD4E429C0CDECD4E426C062
:101A3000C3E8D5E423C0CAE8D5E420C0C2E9D5E4B0
:101A40001DC0C4E9D5E41AC0C1E2D6E417C0C3E2A0
:101A5000D6E414C0C4E2D6E411C0C5E2D6E40EC098
:101A6000C6E2D6E40BC0C7E2D6E408C0CFE6D4E4B1
:101A700005C0C0E7D4E402C0CAE2D6E4CE01DF91DB
:101A8000CF9108958238910549F1B0F481339105E1
:101A900009F458C048F48932910509F44EC08A32DD
:101AA000910509F454C008958533910509F440C0A7
:101AB0008933910599F00895833E910529F138F411
:101AC000803E910591F0823E9105A1F00895863EF9
:101AD0009105F9F0873E910531F108952091A90310
:101AE00020FD3AC021FD38C008958091A90380FDF2
:101AF00035C032C08091A90382FF32C08091A90312
:101B000084FD30C083EE39C08091A90382FD28C0D6
:101B1000F5CF8091A90383FF27C08091A90384FD9D
:101B200021C087EE2AC08091A90383FD1DC0F5CF97
:101B30008091A90385FD1AC01BC08091A90385FD72
:101B400017C014C08091A90386FD14C015C08091F0
:101B5000A90386FD11C00EC080EE0FC089E30DC041
:101B600082EE0BC080E009C086EE07C089E205C0A6
:101B700085E303C08AE201C081E390E0089590917B
:101B8000A90392FF0DC0282F2871283019F4877FF0
:101B9000846006C0282F2471243011F48B7F886064
:101BA00093FF0DC0282F2871283119F4877E846196
:101BB00006C0282F2471243111F48B7E886194FD96
:101BC000877E0895CF93DF93813020E8920778F0E5
:101BD000FB012281222359F0EC010E94FB0D0E949F
:101BE000090ECE019F770E94D10E0E94850E81E0E2
:101BF000DF91CF91089580914D02811109C08CE051
:101C000090E00E940D3480934E0281E080934D025B
:101C10000895E0910F01F091100180818093660397
:101C200081FF03C081EE0E94F5188091660385FF55
:101C300003C085EE0E94F5188091660380FF03C003
:101C400080EE0E94F5188091660384FF03C084EE45
:101C50000E94F5188091660382FF03C082EE0E9405
:101C6000F5188091660386FF03C086EE0E94F51882
:101C70008091660383FF03C083EE0E94F518809174
:101C8000660387FF03C087EE0E94F51880914E021D
:101C9000823001F1A8F48823C9F0813079F580EE13
:101CA0000E94BC1781EE0E94BC1788E10E94BC17FD
:101CB00088E10E94F51881EE0E94F51880EE1CC0A4
:101CC000843081F08530D1F486EE01C082EE0E942E
:101CD000BC1714C082EE0E94BC1787E50E94BC1797
:101CE00087E50AC086EE0E94BC1786EE0E94F518B2
:101CF00088E10E94BC1788E10E94F5188FE39CE9F7
:101D00000197F1F700C00000089580914E028130E4
:101D100049F030F0823021F0853051F486EE06C073
:101D200082EE04C08CE20E94BC178CE20E94F5187F
:101D30008091660381FF03C081EE0E94BC178091F1
:101D4000660385FF03C085EE0E94BC178091660381
:101D500080FF03C080EE0E94BC178091660384FF61
:101D600003C084EE0E94BC178091660382FF03C00B
:101D700082EE0E94BC178091660386FF03C086EE48
:101D80000E94BC178091660383FF03C083EE0E940C
:101D9000BC178091660387FF03C087EE0C94BC17C5
:101DA0000895EF92FF921F93CF93DF937C01CCE0D5
:101DB000D0E097010C2E02C0369527950A94E2F7E1
:101DC000122F1F70812F0E9489080E94BC17812F3B
:101DD0000E9489080E94F5182497CC3F8FEFD807FE
:101DE00041F7DF91CF911F91FF90EF900895EF920F
:101DF000FF920F931F93CF93DF93E901662309F4BA
:101E00004BC0242F30E0EFEFF0E0E61BF109B90101
:101E1000E69F9001E79F300DF69F300D1124232F90
:101E20008B01031B11095CE3E52EF12CB7010E9425
:101E3000D233FB01BC01069FC001079F900D169F86
:101E4000900D1124B7010E94D233E230F105B1F0B8
:101E500040F4309779F0319711F5832F242F461BEA
:101E600021C0E430F105A1F068F03597C1F4842F6A
:101E7000861B18C0832F262F230F14C0862F830F95
:101E8000E42F03C0E42FE61B842F432F2E2F0AC01C
:101E9000842F462F430F06C0842F242F03C080E0D9
:101EA00020E040E0E42FF0E0E45FFA4F4491E22FBD
:101EB000F0E0E45FFA4F9491E82FF0E0E45FFA4F2E
:101EC000E49149839883EA83DF91CF911F910F9129
:101ED000FF90EF90089588E090E00C941534AB01EA
:101EE000BC0188E090E00C943334E1E6F3E083E059
:101EF0008083109262038FEF8283838314826081D8
:101F00007181828193810C946F0F6091610360FFF6
:101F100006C066956F7370E080E090E0089560E021
:101F200070E0CB0108958091650390E001968430C4
:101F3000910514F083E090E0809365036091610364
:101F40007091620380916303909164030C946F0F0E
:101F50008091650390E0019797FF02C080E090E0D8
:101F60008430910514F083E090E0809365036091E4
:101F700061037091620380916303909164030C94F8
:101F80006F0F8091610380FF06C06FE070E087E60D
:101F900093E00C94CC1580E090E0FC01E959FC4FF3
:101FA00011821082128204968C339105B1F7EDCF25
:101FB0009091610390FF0FC020E030E0F901E959F2
:101FC000FC4F8183608342832C5F3F4F2C3331056C
:101FD000A9F70C94C10F0895CF93DF9300D000D0E0
:101FE000CDB7DEB72091610320FF0AC09E012F5FAD
:101FF0003F4F0E94F70E4B8169818A810E94D80F62
:102000000F900F900F900F90DF91CF9108955F92F6
:102010006F927F928F929F92AF92BF92CF92DF92F8
:10202000EF92FF920F931F93CF93DF9300D000D0D6
:10203000CDB7DEB78C01E62EF42E522E80916103CF
:1020400080FF89C0982F9E77923061F49E012F5FA8
:102050003F4FC8010E94F70E4B8169818A810E941F
:10206000D80F59C0E82FE695EF739EE39E0F9F733C
:10207000943018F4F09064034EC09AE39E0F9F735F
:10208000993068F4881F8827881F90916203292F50
:10209000220F022F082B97FB112710F93CC087E273
:1020A0008E0F8F738A30B8F5F0E07997E0FD02C0AB
:1020B00021E001C02FEFEE7FEE5FFA4F8591949102
:1020C0006FE070E00E94D23326034001279F900CFE
:1020D0001124580188E9A81A8EEFB80A87E6C82E9D
:1020E00083E0D82E98E6692E77247394C501B30156
:1020F0000E94D23396014F2D6E2D0E94F70EA80C30
:10210000B91C84E0C80ED11C83EAC81683E0D80647
:1021100069F70E94C10F8091610300FB87F98093EA
:102120006103902F9695809162038078892B10FB34
:1021300087F980936203E0926303F0926403552071
:1021400051F06091610370916203809163039091FB
:1021500064030E946F0F0F900F900F900F90DF910C
:10216000CF911F910F91FF90EF90DF90CF90BF9094
:10217000AF909F908F907F906F905F90089521E037
:102180000C940710E1E6F3E02081221F2227221F92
:1021900030916203432F440F842F822B37FB992702
:1021A00090F90C9668E671E00E94E6334381628103
:1021B0000C94BF1020916103221F2227221F30910F
:1021C0006203432F440F842F822B37FB992790F90A
:1021D0008C3091051CF4845A9E4F01C00C9768E620
:1021E00071E00E94E63340916403609163030C94B4
:1021F000BF10E1E6F3E08081881F8827881F909157
:102200006203292F220F97FB992790F943816FEFE3
:10221000822B0C94BF10E1E6F3E08081881F8827B1
:10222000881F90916203292F220F97FB992790F91D
:10223000438160E0822B0C94BF1040916403842F93
:1022400090E0843F910514F4445F01C04FEF80910A
:102250006103881F8827881F90916203292F220F0E
:1022600097FB992790F960916303822B0C94BF1020
:1022700040916403842F90E00C9714F04C5001C0FF
:1022800040E080916103881F8827881F9091620336
:10229000292F220F97FB992790F960916303822BD6
:1022A0000C94BF1020E00C940710CF939091610321
:1022B00090FF40C09178811102C0926007C08532C2
:1022C00010F0986403C08F73880F982B909361036C
:1022D000662351F060916103709162038091630302
:1022E000909164030E946F0FC09161036C2F6695FB
:1022F0006F7370E04BE050E084E091E00E940034A6
:10230000892B19F010926C0203C081E080936C025B
:10231000CC1FCC27CC1F90916203892F880F97FB8D
:10232000992790F940916403609163038C2BCF91BE
:102330000C945211CF91089561E00C945511809145
:10234000610386958F738F5F853208F081E00C946E
:102350009C118091610386958F73815009F484E20A
:102360000C949C11E1E6F3E0808181608083869586
:102370008F730C949C1160E00C94551180912F0385
:10238000816080932F030E94F822811104C00E9473
:1023900066230E94750F0E946B0F60936103709318
:1023A000620380936303909364036E7761F40E94E9
:1023B000750F0E946B0F60936103709362038093AB
:1023C00063039093640381E080936C0280916103C6
:1023D00080FF04C086958F730C94BB110895E1E6CD
:1023E000F3E080818160808386958F730C94BB11AC
:1023F000E1E6F3E080818E7F80836081718182815C
:1024000093810E946F0F10926C022FEF80E792E091
:10241000215080409040E1F700C000000C94C10FB3
:102420008091610380FD0C94F8110C94B211CF934C
:10243000C82F80916A0290916B020E948624EC2F33
:10244000F0E0E250FB4FE491F0E08E179F0708F4B4
:1024500043C00E947A2490936B0280936A02609139
:10246000690270E080E090E00E94D33120E030E02B
:102470004FE753E40E94F6302BED3FE049E450E48F
:102480000E94FC320E9469330E9470312BE43AE3CF
:102490004EE25FE30E94893020EF3BEF48ED52E4CB
:1024A0000E94FC320E94A231462F80916103881F56
:1024B0008827881F90916203292F220F97FB992765
:1024C00090F960916303822B0E94EC0F8091690266
:1024D00090E0019680936902CF910895CF93C82F21
:1024E00080916702909168020E948624EC2FF0E0B0
:1024F000E550FB4FE491F0E08E179F07E8F00E9453
:102500007A249093680280936702409164036091FB
:10251000630380916502909166020E94EC0F8091A6
:10252000650290916602019668E671E00E94D233DE
:102530009093660280936502CF910895CF92DF92C7
:10254000FF920F931F93CF93DF93F82E8091630236
:10255000909164020E948624EF2DE695F0E0E85009
:10256000FB4FE491F0E08E179F07E8F10E947A2478
:10257000909364028093630207E613E0C0E0D0E02A
:1025800088E6C82EDD24D394809161029091620286
:102590008C0F9D1FB6010E94D233980140916403B5
:1025A000609163030E94F70E68960C5F1F4FC83658
:1025B00081E0D80749F70E94C10F20916102309154
:1025C0006202F0FE0AC0C9010196BE010E94D23328
:1025D000909362028093610206C0215031093093CA
:1025E000620220936102DF91CF911F910F91FF90C2
:1025F000DF90CF900895AF92BF92CF92DF92EF928B
:10260000FF920F931F93CF93DF93C82F80FF02C0D9
:102610001FEF01C011E080915F02909160020E9463
:102620008624C695EC2FF0E0EB50FB4FE491F0E0F0
:102630008E179F0708F466C00E947A249093600268
:1026400080935F0227E6C22E23E0D22E39E6E32EE6
:1026500033E0F32EC0E0D0E0F70131971082F601AD
:102660001082F701108294E0A92EB12C00E0809135
:102670005E02800F87FD815F082E000C990BC81742
:10268000D907E9F4809164038A9DA0018B9D500DC8
:102690001124559547955595479580916103881F5D
:1026A0008827881F90916203592F550F97FB992710
:1026B00090F9960160916303852B0E94F70E010F3C
:1026C000F1E0AF1AB10899F6219684E0C80ED11C4A
:1026D000E4E0EE0EF11CCF30D10509F0BDCF0E9431
:1026E000C10F80915E02113031F4811102C08EE081
:1026F00007C0815005C090E00196BE010E94E633FC
:1027000080935E02DF91CF911F910F91FF90EF9028
:10271000DF90CF90BF90AF9008950F931F93CF930A
:10272000DF93C82F80915C0290915D020E94862405
:10273000EC2FF0E0EE50FB4FE491F0E08E179F0796
:1027400008F464C00E947A2490935D0280935C0236
:1027500080E090E0FC01E959FC4F11821082128266
:1027600004968C339105B1F7C0E0D0E00FE010E0A3
:10277000CE01B8010E94E633FC0180915B02082E75
:10278000000C990BEE0FFF1FEE0FFF1FC817D907A4
:10279000FCF080910301082E000C990B8C179D070B
:1027A000BCF09F0129593C4F80916103881F882705
:1027B000881F90916203592F550F97FB992790F925
:1027C0004091640360916303852B0E94F70E05C05E
:1027D000E959FC4F1182108212822196CF30D10527
:1027E00039F60E94C10F8091020190915B02980F0F
:1027F00090935B0220910301280F2093030112168E
:1028000014F49E301CF0819580930201DF91CF91EA
:102810001F910F910895EF92FF920F931F93CF9303
:10282000DF938091590290915A020E948624883E3B
:102830009340D0F10E947A2490935A0280935902D7
:10284000C0915702D09158022196C170DD27D093D4
:102850005802C093570287E6E82E83E0F82E10E076
:1028600008E7812F8695FE01E80FF11DCF018170E9
:10287000992797014091640360916303FC010E9FC7
:10288000C0010F9F900D11240E94F70E1F5FF4E00E
:10289000EF0EF11C1F3029F7DF91CF911F910F919F
:1028A000FF90EF900C94C10FDF91CF911F910F918A
:1028B000FF90EF900895CF93DF9300D000D0CDB775
:1028C000DEB780915502909156020E948624E0EF77
:1028D000F4E02591349182179307C0F1809154025E
:1028E00081110CC09E012F5F3F4F4FEF6FEF80E0D3
:1028F00090E00E94F70E8A81809354020E947A240D
:10290000909356028093550280915302813051F08A
:1029100028F0823061F4409154020AC08091540240
:1029200040E007C06091540240E080E003C040E016
:1029300080E060E00E94D80F8091530290E0019601
:1029400063E070E00E94E633809353020F900F9093
:102950000F900F90DF91CF9108950F931F93CF9316
:10296000DF9380915102909152020E948624843F0D
:10297000914008F448C00E947A24909352028093B8
:102980005102C7E6D3E000E010E020914F02309101
:1029900050028091610390916203073011051CF48D
:1029A000232B79F002C0232B61F4881F8827881F0E
:1029B000592F550F97FB992790F99E014091640379
:1029C0000AC0881F8827881F592F550F97FB992702
:1029D00090F99E0140E060916303852B0E94F70E01
:1029E0000F5F1F4F24960F30110579F60E94C10F1B
:1029F00080914F0290915002019681709927909397
:102A0000500280934F02DF91CF911F910F91089553
:102A100080916C028823D9F190916103892F86956A
:102A20008F732EE3280F2F73243018F482500C94E8
:102A300017122AE3280F2F73233018F486500C94B2
:102A40006E1227E3280F2F73263018F489500C9448
:102A50009E1221E3280F2F73263018F48F500C9408
:102A6000FB122BE2280F2F73233018F485510C949E
:102A70008D13892F8E77803311F40C940B148634C8
:102A800011F40C945B14883411F40C94AD14089573
:102A9000882319F05198599A02C0519A5998509820
:102AA000589A95E09A95F1F70000509A589895E059
:102AB0009A95F1F70000882311F0519A599885E012
:102AC0008A95F1F7000008958BB18C7F8BB95098EF
:102AD000589A5198599A85E08A95F1F7000008951F
:102AE0008AB18C7F8AB985E08A95F1F70000519A06
:102AF000599885E08A95F1F70000509A589885E03A
:102B00008A95F1F7000008955098589A85E08A95C3
:102B1000F1F700005198599A85E08A95F1F7000085
:102B20000895CF93DF93D82FC8E08D2F80780E942F
:102B30004815DD0FC150C9F780E00E94481585E0B7
:102B40008A95F1F7000085E08A95F1F7000080E0B2
:102B5000DF91CF9108952BB1342F309523233BB1D2
:102B6000432B3FB7F894FC01680F791FE617F7076E
:102B700089F0819198E04BB9000000C087FF2BB924
:102B8000880F000000C000C000C02BB900C09A959B
:102B900091F7ECCF3FBF0895AF92BF92CF92DF92F3
:102BA000EF92FF920F931F93CF93DF938C01EB0172
:102BB000CFB6D090BC00F8948091BC008B7F8093FE
:102BC000BC000E9464150E94701584E80E94911553
:102BD000CC0FDD1FCC0FDD1F78015801AC0EBD1EE0
:102BE000EA14FB0431F0F70181917F010E949115F5
:102BF000F7CF0E948415CFBED092BC00579A40E810
:102C0000BE01C801DF91CF911F910F91FF90EF900E
:102C1000DF90CF90BF90AF900C94AB159093720261
:102C2000809371020895E0917102F09172023097E1
:102C300021F00190F081E02D099480E00895E09169
:102C40007102F0917202309799F0209120012223B5
:102C500059F02091A90327FF07C0DC012C911196A0
:102C60002C93119725E02C930280F381E02D099499
:102C70000895E0917102F0917202309739F022E0EC
:102C8000DC012C930480F581E02D099408952091B6
:102C90006F02309170028217930771F09093700267
:102CA00080936F02E0917102F0917202309721F0EF
:102CB0000680F781E02D0994089520916D023091EE
:102CC0006E028217930771F090936E0280936D02EB
:102CD000E0917102F0917202309721F00084F18549
:102CE000E02D0994089585B7806885BF85B7806811
:102CF00085BF089508950E9473160C947A1681E09A
:102D000008950E9471240E9459040E9408250C9481
:102D1000BE11CF92DF92EF92FF920F931F93CF934A
:102D2000DF93CDB7DEB72B970FB6F894DEBF0FBE9B
:102D3000CDBF0E942B050E947F16811111C08FEF1D
:102D400089838A831B820E947A248160782F9D83E5
:102D50008C8349815A816B818D810E946D1756C089
:102D600084E7C82E82E0D82E00E010E0E02E802F0D
:102D70000E947305F60141916F01F42EF82631F49B
:102D80000F5F1F4F0E30110589F7D9CF90912F0398
:102D900091FF04C08B870E9479058B8520E030E08D
:102DA0004F2D50E0922FBA01022E02C07595679503
:102DB0000A94E2F760FF24C02E83EF8221E030E026
:102DC000690102C0CC0CDD1C9A95E2F790E08C21E1
:102DD0009D21892B09F420E028870E947A248160B4
:102DE000782F9A8789874E815F8168858A850E94BE
:102DF0006D17F801EC58FD4F8081C826C08206C0CF
:102E00002F5F3F4F2630310569F6BACF0E949B26CF
:102E1000109173020E9413161817A1F00E94131646
:102E2000809373022B960FB6F894DEBF0FBECDBF12
:102E3000DF91CF911F910F91FF90EF90DF90CF9096
:102E40000C949A082B960FB6F894DEBF0FBECDBF38
:102E5000DF91CF911F910F91FF90EF90DF90CF9076
:102E60000895DC0111962C9111978C91682F70E0D8
:102E700041E050E001C0440F8A95EAF712968C9128
:102E8000129730E0882329F0809192028823E9F09C
:102E900006C0F901EE57FD4F90819423B1F086E012
:102EA000829FF001839FF00D1124E60FF71FEE0FB4
:102EB000FF1FEF5DFE4F808191818D939C93F901FF
:102EC000EE57FD4F8081482B06C0F901EE57FD4FAC
:102ED00040958081482340830895CF93DF93CDB7F9
:102EE000DEB72B970FB6F894DEBF0FBECDBF942F81
:102EF0004F83252F588769877A878B874A855B851B
:102F0000452B21F02F3F09F59F3FF9F4DE01119683
:102F100086E0FD0111928A95E9F785E0FE0137967A
:102F200001900D928A95E1F749815A816B817C81EC
:102F30008D819E810E940F1F2B960FB6F894DEBFE5
:102F40000FBECDBFDF91CF910895CE0107960E94AD
:102F50003117DCCFFC01808191810E94DA219295AA
:102F60009F70963041F48091920291E0892780937E
:102F70009202909391020895CF93DF931F92CDB761
:102F8000DEB7882309F42DC1682F8238C1F40E946E
:102F9000131681FD26C169E380910F019091100104
:102FA0000E94CD230E9439222FEF81EE94E0215020
:102FB00080409040E1F700C0000069E319C0833809
:102FC00011F50E94131680FD0CC163E580910F017D
:102FD000909110010E94CD230E9439222FEF81EEA3
:102FE00094E0215080409040E1F700C0000063E58C
:102FF00080910F01909110010E94D8230F90DF91D2
:10300000CF910C9439228438C1F40E94131682FDAA
:10301000E8C067E480910F01909110010E94CD23D8
:103020000E9439222FEF81EE94E0215080409040A1
:10303000E1F700C0000067E4DBCF8CEF860F813A38
:1030400070F4862F69830E94D12869818111C9C0DB
:1030500080910F01909110010E94CD23CFCF80E28B
:10306000860F883048F4677081E001C0880F6A9548
:10307000EAF70E946F22C2CF8BE5860F833088F477
:10308000653A29F0663A31F083E890E005C081E8BE
:1030900090E002C082E890E00F90DF91CF910C9415
:1030A000471688E5860F873108F091C0683A09F421
:1030B00045C0693A09F445C06A3A09F445C06B3A1B
:1030C00009F445C06C3A09F445C06B3B09F445C0AE
:1030D0006C3B09F445C06D3A09F445C0603B09F406
:1030E00045C06E3A09F445C06F3A09F445C0613BEA
:1030F00009F445C0623B09F445C0633B09F445C08F
:10310000643B09F445C0653B09F445C0663B09F4DE
:1031100045C0673B09F445C0683B09F445C0693BBD
:1031200009F445C06D3B09F445C06E3B09F445C048
:103130006A3B09F445C080E090E044C082EE90E034
:1031400041C089EE90E03EC08AEE90E03BC085EB46
:1031500090E038C086EB90E035C083EB90E032C061
:1031600084EB90E02FC087EB90E02CC08CEC90E0DB
:1031700029C08DEC90E026C083E891E023C08AE866
:1031800091E020C082E991E01DC084E991E01AC07D
:1031900081E292E017C083E292E014C084E292E000
:1031A00011C085E292E00EC086E292E00BC087E299
:1031B00092E008C08FE690E005C080E790E002C092
:1031C0008AE292E00F90DF91CF910C945D16603F00
:1031D00040F0862F0E94A3250F90DF91CF910C9491
:1031E00090260F90DF91CF910895882309F464C051
:1031F000823879F40E94131681FF5EC069E38091E2
:103200000F01909110010E94CD230E94392269E3A1
:1032100010C08338B1F40E94131680FF4DC063E5DF
:1032200080910F01909110010E94CD230E943922BC
:1032300063E580910F01909110010E94D8230C94B6
:103240003922843879F40E94131682FF35C067E46E
:1032500080910F01909110010E94CD230E9439228C
:1032600067E4E7CF9CEF980F913A10F4682FE1CF15
:1032700090E2980F983050F4877091E001C0990F58
:103280008A95EAF7892F0E947522D9CF9BE5980F7E
:10329000933020F480E090E00C94471698E5980F66
:1032A000973120F480E090E00C945D16803F20F090
:1032B0000E940B260C9490260895882321F00E94EA
:1032C0006F220C9439220895882321F00E947522E0
:1032D0000C94392208958F929F92AF92BF92DF9201
:1032E000EF92FF920F931F93CF93DF937C01D62F22
:1032F000C72FFC01058102950F70128111110E94E8
:103300008C220E943222882379F0112369F080E216
:103310008D0F883048F082E00E941B220E943222EA
:1033200091E0D82ED92601C0D12CAC2EA2948FE0EA
:10333000A822B12CF501E358FF4F0C94FA338C2FDF
:10334000807FCF70882311F0C295C07F112399F040
:10335000CC2309F4C8C180E28D0F883010F0D11160
:1033600004C08C2F0E946F2203C08C2F0E947F22EA
:103370000E943922B8C18D2F0E94F518CC2309F480
:103380002EC280E28D0F883010F0D11104C08C2F36
:103390000E94752203C08C2F0E9485220E94392230
:1033A0001EC28C2F807FCF70803211F0C295C07FFB
:1033B000DD2319F0D130C9F021C0112371F00023B1
:1033C00041F0013031F40E94A5228C2B0E949F22F3
:1033D00006C20E94A5228C2B3FC1002319F00130A8
:1033E00009F4FDC10E94A22211C0112321F0023074
:1033F00008F0F5C107C00111F2C108C0112321F086
:10340000011171C18C2F28C101117EC18C2F2AC1DD
:103410008C2F86958695837090E0009719F0019720
:1034200061F0DDC1112321F08D2F9C2F937002C01C
:1034300080E090E00E944716E2C1112321F08D2F19
:103440009C2F937002C080E090E00E945D16D7C16F
:103450001123F9F0D53F51F0D63F71F0D43FA9F4D4
:103460008091A3039091A40381600BC08091A3037A
:103470009091A403826005C08091A3039091A4035E
:1034800084609093A4038093A3038D2F0E94A325AF
:103490001EC0D53F51F0D63F71F0D43FA9F48091C2
:1034A000A3039091A4038E7F0BC08091A3039091FE
:1034B000A4038D7F05C08091A3039091A4038B7F0B
:1034C0009093A4038093A3038D2F0E940B260E9448
:1034D000902695C18C2F837009F050C011118BC1BB
:1034E0008D2F829586958770880F880F9D2F9F70EE
:1034F000892E912CA12CB12C082E04C0880C991C6B
:10350000AA1CBB1C0A94D2F7D4FF14C00FE010E031
:1035100020E030E0B901A80104C0440F551F661F28
:10352000771F8A95D2F7CB01BA0160957095809587
:10353000909503C060E070E0CB01C695C695C3705E
:10354000D0E0C230D10561F0C330D10581F06829E7
:1035500079298A299B29219771F00E9454204BC117
:10356000682979298A299B290E94662044C10E94E2
:103570005420C501B4010E9442203DC1112319F01D
:103580008C2F817001C08695882309F434C18D2F5A
:10359000829586958770880F880F9D2F9F70892E42
:1035A000912CA12CB12C082E04C0880C991CAA1CAB
:1035B000BB1C0A94D2F7D4FF14C00FE010E020E047
:1035C00030E0B901A80104C0440F551F661F771FE2
:1035D0008A95D2F7CB01BA01609570958095909548
:1035E00003C060E070E0CB01C695C695C3704C2F58
:1035F00050E04230510569F04330510589F06829A7
:1036000079298A299B294130510571F00E9419219D
:10361000F2C0682979298A299B290E942B21EBC0B5
:103620000E941921C501B4010E940721E4C08D2F19
:1036300090E0FC01E05EF109E531F10508F04FC0D2
:10364000E357FF4F0C94FA33DF708C2F8F711123E7
:1036500031F00E94A0208D2F0E945D19C0C00E94F1
:10366000C1208D2F0E946419BAC0112339F00111B5
:10367000B6C08C2F8F710E94E620B1C0023008F0D6
:10368000AEC0F7CF112339F08C2F8F710E94A0208C
:10369000A6C01123C9F38C2F8F710E94C1209FC037
:1036A000112329F08C2F8F710E948B2098C00E94CB
:1036B000862095C0112349F0CF718C2F0E94A02045
:1036C00063E08C2F0E9412228AC081E00E941B229C
:1036D000023008F484C082E00E941B2280C01123C3
:1036E00031F0002389F28D2F0E94BC1778C000238F
:1036F00091F2D93349F45FEF67EE73E051506040C7
:103700007040E1F700C000008D2F0E94F51867C0DF
:103710004C2F4F706D2FC7010E9439070E94B31FB5
:103720006EC0D23FB1F028F4D03F49F0D13FF9F05C
:1037300028C0D43FB9F058F0D53F71F022C0112312
:1037400009F447C09091920281E0892708C081E086
:103750001827109392023DC011113BC081E0809365
:10376000920237C0111135C01092920232C011235B
:1037700029F080919102882329F329C0002311F3B5
:1037800028C0809191020023C1F0882341F09091DC
:10379000920281E0892780939202109291028D2FEC
:1037A000112319F00E94BC1714C00E94F51886E07E
:1037B000F70111928A95E9F70CC0882351F0111195
:1037C00008C09091920281E0892780939202109222
:1037D00091024C2F4F706D2FC7010E946A0BF8E0C9
:1037E000AF16B10441F05CF04AE0A41AB10852E00F
:1037F000A516B10420F40E9413160E949A08DD2039
:10380000E1F00E940E2280FD18C0F70112820E9492
:1038100008220E94A020C7010E94291C0E940822A1
:10382000DF91CF911F910F91FF90EF90DF90BF90AC
:10383000AF909F908F900C94C120DF91CF911F91FA
:103840000F91FF90EF90DF90BF90AF909F908F907F
:1038500008950F931F93CF93DF93EC018881998193
:103860002B813C81232BB9F09F3F11F48F3F99F0BE
:10387000CE010E94AC08882371F0688179818A8129
:103880000E94E5218C010E943D210E943F20B80149
:10389000CE010E946B19DF91CF911F910F91089576
:1038A0000E948C220E949C2280910F019091100115
:1038B0000E94E3230E9439220E9436270E9490260C
:1038C00080E090E00E94471680E090E00C945D1646
:1038D0000E947C220C94501C0E94DA21E92FE29570
:1038E000EF70F0E03297EE30F105B0F4EE55FF4F97
:1038F0000C94FA33803F91F018F4803E68F40EC0C7
:10390000843F51F40BC0803E48F0813F29F406C04B
:1039100093FB882780F9089580E0089581E0089559
:10392000CF93DF9300D000D01F92CDB7DEB70F90BA
:103930000F900F900F900F90DF91CF910895CF933C
:10394000DF9300D000D000D0CDB7DEB726960FB6FB
:10395000F894DEBF0FBECDBFDF91CF9108951F93C6
:10396000CF93DF93C091930216E080919402C81721
:1039700099F0D0E01C9FF0011D9FF00D1124EB5633
:10398000FD4F4081518162817381848195810E94C4
:103990009F1C2196C770E9CFDF91CF911F910895A9
:1039A0004091C5025091C6026091C7027091C80251
:1039B0008091C9029091CA020C949F1C8091CA0206
:1039C00082958F7009F054C08091C702882309F452
:1039D0004FC080919302A09194026091C5027091B2
:1039E000C6024091C8025091C902B6E08A1709F494
:1039F0003FC090E041155105C1F17F3F11F46F3F89
:103A0000A1F1B89FF001B99FF00D1124EB56FD4FC5
:103A1000218172132AC02081621327C022812111C3
:103A200024C0238134812417350710F42150310933
:103A3000241B350B283C3105C0F42091CA022F709D
:103A400020612093CA0226E0289FF001299FF00DF3
:103A50001124E656FD4F80818F708061808385EC54
:103A600092E00E94291C0C94AF1C01968770BECF77
:103A70000895CF92DF92EF92FF920F931F93CF930F
:103A8000DF93CDB7DEB762970FB6F894DEBF0FBEF7
:103A9000CDBF8C0185E0F801DE011D9601900D92ED
:103AA0008A95E1F7D8014C9111965C911197129685
:103AB0006C9112971396CD90DC9014973091C502BB
:103AC0007091C6028091C8029091C902009709F4D2
:103AD0006BC17F3F19F43F3F09F466C1E090C70214
:103AE000EE2009F4C0C02091CA02C816D90628F0F9
:103AF000F601E81BF90BCF0104C0809590958C0D61
:103B00009D1DFF24F394883C910578F0F12C207FD3
:103B100009F0C6C07C2DD98AC88A89890E94901C68
:103B200085EC92E00E94291CB1C0822F807F09F0B1
:103B300046C0751314C0341312C0611110C02F7029
:103B400020612093CA020E94D01C85EC92E00E9462
:103B5000291C8091CA02D80115968C932EC0CD28BD
:103B600019F15F3F11F44F3FF9F0F62E61111CC0BF
:103B7000809193022091940236E0821709F45AC092
:103B800090E0389FF001399FF00D1124EB56FD4F66
:103B90007181571306C07081471303C07281711180
:103BA00003C001968770E9CFF62E662309F427C17A
:103BB0008091CA0281608093CA02F12C20C17513E2
:103BC00008C0341306C0611104C08091CA02D80134
:103BD000C3C04D875E878D859E856A8B0E946C1C55
:103BE0006A898823E1F16623D1F12091CA02822FEC
:103BF00082958F7090E0029774F08091C502909149
:103C0000C60298878F831986DB86CA862C87CE01E9
:103C100007960E94291C86E0F801A5ECB2E001900D
:103C20000D928A95E1F70E94DE1C0E94D01CFF24B1
:103C3000F394E5C04D875E878D859E850E94DA21CD
:103C4000292F22952F7030E0223031050CF0CBC0A7
:103C50009F7009F0C5C0805E883008F4D0C0C801EC
:103C60000E94291CE4CFC816D90608F453C0F601F7
:103C7000E81BF90BCF01883C910508F450C0F12CEA
:103C80007C2DD98AC88A89890E94901CE5ECF2E0D3
:103C900086E0DF011D928A95E9F70E94D01CAFC033
:103CA000751314C0341312C0611110C08091CA0280
:103CB000F8018583C8010E94291C86E0E5ECF2E04A
:103CC000DF011D928A95E9F7FE2C99C04D875E872A
:103CD0008D859E856A8B0E946C1C6A89882309F4F5
:103CE000BECF662309F4BBCF2091CA02822F8295F2
:103CF0008F7090E002970CF48ECF8091C502909166
:103D0000C6029A8389831B82DD82CC822E83CE01F8
:103D100001967FCF809590958C0D9D1DACCFF62E92
:103D2000662309F49CCF75132EC034132CC0209148
:103D3000CA0220FD1FC0822F82958F70D9F0D80152
:103D400015962C9315978F3049F08F5F982F929589
:103D5000907F822F8F70892B15968C93C8010E94BB
:103D6000291C86E0F801A5ECB2E001900D928A953D
:103D7000E1F793CF86E0F801A5ECB2E001900D9257
:103D80008A95E1F73CC04D875E878D859E850E94B0
:103D90006C1C811140CF8091CA0281608093CA025D
:103DA000C8010E94291C2BC0662309F458CF4D87F7
:103DB0005E878D859E850E946C1CF82E882309F4F1
:103DC0004ECF86E0F801A5ECB2E001900D928A9505
:103DD000E1F785EC92E00E94AA170E94DE1C5DCFFD
:103DE000811139CF0CC0243031050CF038CF9F70D1
:103DF00009F431CFF8019581907F09F02CCF8F2DF8
:103E000062960FB6F894DEBF0FBECDBFDF91CF91A3
:103E10001F910F91FF90EF90DF90CF9008951F9327
:103E2000CF93DF93CDB7DEB72C970FB6F894DEBFF4
:103E30000FBECDBF4F83588769877A878B879C8752
:103E4000CE0107960E94391D882369F08F819885DD
:103E50002A853B85232BF1F19F3F09F063C08F3FFB
:103E600009F060C037C086E0FE013796DE0111968A
:103E700001900D928A95E1F76F817885EA85FB853F
:103E8000309741F17F3F11F46F3F21F1209194026F
:103E900030E0C9010196877099274091930250E064
:103EA0008417950709F447C069837A83FD83EC83FF
:103EB00096E0929FD001939FB00D1124AB56BD4F59
:103EC000FE01319601900D929A95E1F7809394024C
:103ED0000E94AF1C16E08091930290919402891782
:103EE000C1F1189FC00111248B569D4F0E94391DAE
:103EF000882379F1E09193021E9FF0011124EB5683
:103F0000FD4F4081518162817381848195810E943E
:103F10009F1C8091930290E001968770992780936F
:103F20009302D9CF4F81588569857A858B859C8589
:103F30000E949F1CCFCF0E94681C10929402109286
:103F40009302E5ECF2E086E0DF011D928A95E9F745
:103F5000C1CF2C960FB6F894DEBF0FBECDBFDF9158
:103F6000CF911F910895EF92FF920F931F93CF93DC
:103F7000DF938C01892B09F46CC0F12CEE24E394BF
:103F8000E8012196F8018491843740F4843008F0E8
:103F900051C0813081F0823019F15BC0853709F45E
:103FA00044C0A8F19CE7980F903708F052C08F7773
:103FB0000E94F51841C00E5F1F4FFE01C49180E2C0
:103FC0008C0F883048F4C7708E2D01C0880FCA95B9
:103FD000EAF70E948F2214C08C2F0E94BC172DC0BC
:103FE0000E5F1F4FFE01C49180E28C0F883058F4A1
:103FF000C7708E2D01C0880FCA95EAF70E949522DE
:104000000E9439221AC08C2F0E94F51816C00E5F2C
:104010001F4FFE01C491CC2381F08FE99FE00197EF
:10402000F1F700C00000C150F6CF0E5F1F4FFE0138
:10403000F49003C00E94BC178E018F2D882309F4D1
:104040009FCFEFE9FFE03197F1F700C0000081500A
:10405000F5CFDF91CF911F910F91FF90EF900895D1
:1040600008950C9430200E943120609306037093D1
:10407000070380930803909309030C94501C089540
:104080000C9433200F931F930091060310910703A4
:104090002091080330910903602B712B822B932B05
:1040A0001F910F910C9433200F931F9300910603DF
:1040B00010910703209108033091090360237123B5
:1040C000822393231F910F910C9433200F931F93FE
:1040D0000091060310910703209108033091090312
:1040E00060277127822793271F910F910C9433200B
:1040F0000C94A2070E94782060930203709303033C
:1041000080930403909305030C94501C60E070E0CE
:10411000CB010C947A200F931F9341E050E060E0B4
:1041200070E08A019B0104C0000F111F221F331F82
:104130008A95D2F7C901B8011F910F910C947A208A
:104140000F931F9341E050E060E070E004C0440F23
:10415000551F661F771F8A95D2F7809102039091B1
:104160000303A0910403B09105038A019B01082B6E
:10417000192B2A2B3B2BC901B8011F910F910C94CD
:104180007A200F931F9341E050E060E070E004C09C
:10419000440F551F661F771F8A95D2F7409550959B
:1041A000609570958091020390910303A0910403A0
:1041B000B09105038A019B01082319232A233B237D
:1041C000C901B8011F910F910C947A200F931F938E
:1041D00041E050E060E070E004C0440F551F661FEE
:1041E000771F8A95D2F78091020390910303A091E3
:1041F0000403B09105038A019B01082719272A2788
:104200003B27C901B8011F910F910C947A200F939D
:104210001F93009102031091030320910403309136
:104220000503602B712B822B932B1F910F910C9404
:104230007A200F931F9300910203109103032091A2
:1042400004033091050360237123822393231F917C
:104250000F910C947A200F931F93009102031091F9
:1042600003032091040330910503602771278227FF
:1042700093271F910F910C947A200895292F220FD4
:10428000920F990F890FA82FA695A695A6958770CE
:1042900051E001C0550F8A95EAF785E0A89FD0014B
:1042A000112420E030E070E0F901EA0FFB1FE55334
:1042B000FD4F4081CB01022E02C0969587950A944E
:1042C000E2F781709927819584278523842780834D
:1042D0002F5F3F4F2530310539F70895292F220FE1
:1042E000920F990F890F682F669566956695982F9E
:1042F000977085E0689FB001112440E050E080E0B5
:10430000FA01E60FF71FE553FD4F208130E0092E3B
:1043100002C0369527950A94E2F721703327042EC0
:1043200001C0220F0A94EAF7822B4F5F5F4F45309E
:10433000510531F70895CF92DF92EF92FF920F93DC
:104340001F93CF93DF938C01C0900603D090070397
:10435000E0900803F0900903809102039091030319
:10436000A0910403B0910503C82AD92AEA2AFB2A9E
:10437000CFE1D0E0D701C6010C2E04C0B695A795B9
:10438000979587950A94D2F780FF06C0B8018C2FC5
:104390000E94850B019721F4219760F780E001C00E
:1043A0008C2FDF91CF911F910F91FF90EF90DF90B5
:1043B000CF900895CF93DF93EC010E949B21BE0123
:1043C0000E94850BDF91CF9108951F93CF93DF93C8
:1043D000EB0190919002992321F0CB010E94DA2108
:1043E00013C0882349F0CB010E949B21182F682F0E
:1043F000CE010E943E2104C0CB010E946E21182FE5
:10440000BE01812F0E94850BDF91CF911F910895EE
:1044100080910A03859585958595089580910A0375
:104420008770089598E0899F90011124262B20938E
:104430000A030C94A02020910A0380958223809384
:104440000A03982F977069F430E0482F082E000C6B
:10445000550B2417350729F08595859585950C947E
:10446000C120089590910A03977081E009F480E0DB
:104470000895E0910F01F091100180912E03808347
:10448000E0910F01F0911001908180912D03892B13
:104490008083E0910F01F0911001908180912C03B5
:1044A000892B808380910B03882381F0E0910F0199
:1044B000F09110019081892B808380910F01909160
:1044C00010010E946823811110920B0380910F014B
:1044D000909110010C941F1680912E0308959091D5
:1044E0002E03892B80932E030895809590912E039F
:1044F000892380932E03089510922E03089590919E
:104500002D03892B80932D030895809590912D0381
:10451000892380932D03089510922D03089590917F
:104520002C03892B80932C030895809590912C0364
:10453000892380932C03089510922C03089580936F
:104540000B03089510920B03089580910B030895B7
:10455000CF92DF92EF92FF926C01EE24FF24C11400
:10456000D104E104F10421F0C701B60120E101C04A
:1045700020E0C72ED82EE92EFF24C114D104E10477
:10458000F10419F0285FC701B6016B017C0154E00A
:10459000F694E794D794C7945A95D1F7C114D104EF
:1045A000E104F10419F02C5FC701B6016B017C0135
:1045B00042E0F694E794D794C7944A95D1F7C11492
:1045C000D104E104F10419F02E5FC701B601DC014A
:1045D000CB01B695A79597958795892B8A2B8B2B21
:1045E00009F02F5F822FFF90EF90DF90CF9008951A
:1045F00080E090E00E941B3421E08D3E9E4F09F048
:1046000020E0822F089582E090E00C940D3483E046
:1046100090E00C940D3484E090E00C940D34682FFD
:1046200084E090E00C942134AB01BC018FE090E079
:104630000C943334AB01BC0183E190E00C9433342F
:1046400060E070E0CB010C941A2360E070E0CB01D5
:104650000E9414230C9420236DEE7EEF80E090E006
:104660000E943F3460E082E090E00E94213460E0EC
:1046700083E090E00E942134109206031092070319
:10468000109208031092090360E084E090E00E9419
:10469000213460E085E090E00E94213460E086E013
:1046A00090E00E9421346FEF87E090E00E94213477
:1046B00040E050E0BA0188E090E00E94333460E0CE
:1046C0008DE090E00E9421340C9425230C942C233F
:1046D000FC01329680912001882331F08091A9035A
:1046E00087FF02C09EE101C096E080E0915028F073
:1046F00021912223D9F38F5FF9CF08959C01FC010A
:1047000032969FEF80E04191461789F09F3F19F460
:10471000411101C0982F8F5F8630A9F79F3F39F074
:10472000F901E90FF11D97FDFA9562830895089547
:10473000FC01329608962081261301C01082319622
:10474000E817F907C1F70895262F2695269526958F
:104750002E3168F4FC01E20FF11D677021E030E0BA
:1047600001C0220F6A95EAF78281282B22830895DF
:10477000262F2695269526952E3170F4FC01E20F02
:10478000F11D677021E030E001C0220F6A95EAF761
:1047900020958281282322830895209120012223BD
:1047A00029F02091A90327FD0C94A4230C947E23C7
:1047B00020912001222329F02091A90327FD0C94A8
:1047C000B8230C94982320912001FC0132962223D7
:1047D00031F08091A90387FF02C08EE101C086E01D
:1047E000DF011D928A95E9F7089508950C94F52349
:1047F0000E94F6238091AF03843049F11092300378
:1048000020E488E190E00FB6F894A89580936000CA
:104810000FBE2093600080E00E949A080E94F62359
:1048200083B7817F846083BF83B7816083BF7894BF
:10483000889583B78E7F83BF0FB6F894A895809133
:104840006000886180936000109260000FBE089540
:104850000895CF930E9482040E942B050E94282471
:10486000C0E08C2F0E947305811104C0CF5FCE3051
:10487000C1F701C081E0CF91089508950C943D24C3
:104880000E94681C0E9413160E949A080C943E24F1
:104890001F920F920FB60F9211248F939F93AF9395
:1048A000BF9380913003811113C08091A503909133
:1048B000A603A091A703B091A8034196A11DB11D25
:1048C0008093A5039093A603A093A703B093A80396
:1048D000BF91AF919F918F910F900FBE0F901F903E
:1048E000189582E084BD93E095BD9AEF97BD8093C3
:1048F0006E0008952FB7F8948091A5039091A603B8
:10490000A091A703B091A8032FBF0895CF92DF9283
:10491000EF92FF920F931F932FB7F8944091A50346
:104920005091A6036091A7037091A8032FBF6A015D
:104930007B01EE24FF248C0120E030E0C016D1067C
:10494000E206F30610F4415051099A01281B390B75
:10495000C9011F910F91FF90EF90DF90CF900895C4
:1049600078941F920F920FB60F9211248F939F93FA
:10497000AF93BF938091A5039091A603A091A70345
:10498000B091A8030196A11DB11D8093A50390933A
:10499000A603A093A703B093A803BF91AF919F91E3
:1049A0008F910F900FBE0F901F901895F89481E093
:1049B0008093E00080E28093D800E9ECF0E0108280
:1049C0008FE19EE40197F1F700C000001DBA10923C
:1049D00068001CBC10BE1FBA10927A0010926E00C4
:1049E00010926F0010927100109272001082ECEB26
:1049F000F0E0108214B817B81AB81DB810BA1082B7
:104A000015B818B81BB81EB811BA0C94003F089519
:104A10000E94F822811102C00E9466230E94032393
:104A200080932F030E940B2390E09093AA0380931E
:104A3000A9030E940723682F70E080E090E00C94A7
:104A400040208091340380FF0BC06091140185E009
:104A5000689FB001112475956795759567952BC072
:104A600081FF09C06091140185E0689FB0011124A5
:104A70007595679520C082FF07C06091140185E09D
:104A8000689FB001112417C0909135039923D1F08C
:104A900060911301961788F72091140185E0289FF3
:104AA00090011124929FA001939F500D112470E05A
:104AB000CA010E94E6336038710540F46115710542
:104AC00039F002C065E070E0862F08958FE7089501
:104AD00081E008958091340380FF08C06091120145
:104AE00070E0759567957595679521C081FF06C043
:104AF0006091120170E07595679519C082FF04C03E
:104B00006091120170E010C0909135039923C1F0BB
:104B1000609111019617A0F780911201899FC00141
:104B2000112470E00E94E6336038710528F46115A5
:104B3000710521F0862F08958FE7089581E008958B
:104B400061E070E0F4CF803F21F40E94212581953F
:104B500004C0813F29F40E942125809339030895E0
:104B6000823F21F40E942125819504C0833F29F4CE
:104B70000E942125809338030895893F19F40E94EB
:104B80006A2505C08A3F31F40E946A258195809389
:104B90003A0308958B3F21F40E946A25819504C051
:104BA0008C3F29F40E946A2580933B030895843F3B
:104BB00021F480913703816017C0853F21F48091F3
:104BC0003703826011C0863F21F4809137038460EF
:104BD0000BC0873F21F480913703886005C0883F70
:104BE00031F48091370380618093370308958D3FBE
:104BF00021F48091340381600BC08E3F21F48091B9
:104C00003403826005C08F3F29F4809134038460AF
:104C1000809334030895803F39F48091390387FFEE
:104C20006CC01092390369C0813F29F48091390327
:104C30001816BCF362C090913803823F29F497FFA5
:104C40005CC01092380359C0833F19F41916CCF395
:104C500054C0893F41F480913A0318160CF04DC0BE
:104C600010923A034AC08A3F29F480913A0387FFA1
:104C700044C0F6CF8B3F39F480913B0387FF3DC0A2
:104C800010923B033AC08C3F29F480913B031816E5
:104C9000BCF333C0843F21F4809137038E7F17C06B
:104CA000853F21F4809137038D7F11C0863F21F429
:104CB000809137038B7F0BC0873F21F480913703AE
:104CC000877F05C0883F31F4809137038F7E8093C2
:104CD000370313C08D3F21F4809134038E7F0BC0C6
:104CE0008E3F21F4809134038D7F05C08F3F29F4DE
:104CF000809134038B7F809334038091380381113A
:104D00000EC08091390381110AC080913A0381114C
:104D100006C080913B03811102C0109235030895B3
:104D200086E393E00E9439160E947A24909332031E
:104D30008093310308951F93CF93DF9380913103C4
:104D4000909132030E948624AC01909135039923FF
:104D500021F02091150130E006C0209133038AE054
:104D6000289F900111244217530708F47BC08091BB
:104D70003803C0913903D0913A0310913B0381115C
:104D800007C0C1116BC0D11169C0111167C06AC0E1
:104D90009F3F19F09F5F90933503181624F40E94EB
:104DA0002125809338038091380387FF05C00E9436
:104DB00021258195809338031C1624F40E94212517
:104DC000809339038091390387FF05C00E94212514
:104DD000819580933903309138033323E1F020919A
:104DE00039032223C1F045EB3403C0011124892F7C
:104DF000990F990B009709F481E08093380335EB04
:104E00002303C0011124892F990F990B009709F4EE
:104E100081E0809339031D1624F40E946A25809353
:104E20003A0380913A0387FF05C00E946A25819565
:104E300080933A03111624F40E946A2580933B0361
:104E400080913B0387FF05C00E946A25819580936E
:104E50003B03DF91CF911F910C9490269F3F09F067
:104E600099CFA1CFDF91CF911F910895E6E3F3E0B1
:104E700086E0DF011D928A95E9F7109235031092C2
:104E800034030895833081F128F4813059F0823061
:104E9000D1F00895853009F449C0B8F1863009F49D
:104EA00056C0089580913303262F30E0280F311D1E
:104EB0002F3F310524F4680F6093330308958FEF7B
:104EC00080933303089580911501262F30E0280F39
:104ED000311D2F3F310524F4680F609315010895AB
:104EE0008FEF80931501089580911401262F30E0F3
:104EF000280F311D2F3F310524F4680F60931401F2
:104F000008958FEF80931401089580911301262F47
:104F100030E0280F311D2F3F310524F4680F6093D6
:104F2000130108958FEF809313010895809112016A
:104F3000262F30E0280F311D2F3F310524F4680F54
:104F40006093120108958FEF80931201089580916C
:104F50001101262F30E0280F311D2F3F310524F499
:104F6000680F6093110108958FEF809311010895E8
:104F7000833011F128F4813049F0823091F00895A6
:104F8000853081F120F18630C1F10895809133039D
:104F9000681720F4861B809333030895109233031F
:104FA000089580911501681720F4861B80931501E0
:104FB000089510921501089580911401681720F446
:104FC000861B809314010895109214010895809116
:104FD0001301681720F4861B809313010895109223
:104FE0001301089580911201681720F4861B8093A5
:104FF000120108951092120108958091110168170D
:1050000020F4861B809311010895109211010895D8
:105010000F931F93873208F04DC08E3108F093C074
:10502000803109F47DC008F5873009F46BC068F45D
:10503000863009F0A3C080912F03817F8E7F8093FB
:105040002F0381E080933D039AC08B3009F48FC019
:105050008E3009F093C080912F0382FB222720F924
:1050600091E0922790FB82F964C0863109F47FC0F9
:1050700088F4813109F082C00E94681C8091A903E4
:1050800087FB222720F991E0922790FB87F98093F4
:10509000A9036DC0893109F46AC08B3109F06EC073
:1050A00080912F0381FB222720F991E0922790FB2A
:1050B00081F93FC0883309F45AC050F4893209F4A9
:1050C00058C0853309F455C0873209F452C056C020
:1050D000833409F44EC028F48A3308F44FC089534E
:1050E00033C0883409F04AC00E94681C0FEF13EDEA
:1050F00020E3015010402040E1F700C000000E9472
:10510000D62435C080912F03982F9095917090FBF5
:1051100080F980932F0391112AC0897F877F10C067
:1051200080912F0383FB222720F991E0922790FBA7
:1051300083F980932F039923D1F080912F0381600D
:1051400080932F0314C08D5141E050E060E070E087
:105150008A019B0104C0000F111F221F331F8A9573
:10516000D2F7C901B8010E9440200E94681C81E06A
:1051700006C061E070E080E090E0F5CF80E01F9134
:105180000F91089580E0089580E008958E518A304F
:1051900030F4E82FF0E0E753FE4F8081089580E07F
:1051A0000895CF93C82F80913D03813079F018F096
:1051B0008230E9F185C0E0910F01F091100180810A
:1051C000813169F0823209F07DC009C0E0910F01A0
:1051D000F09110018081813111F0823261F48C2FC5
:1051E0000E94C228811104C08C2F0E9408281DC073
:1051F00081E090E01AC08C2F0E94C428811114C055
:10520000C43179F048F4CB3079F0C03109F05EC098
:1052100082E080933D0308C0C93219F0C83321F001
:1052200055C010923D0352C081E0817051C0C93217
:1052300079F108F5C43161F1A0F4C73009F044C038
:105240001092330384E180931501C09314018CE321
:105250008093130188E08093120188E2809311010A
:1052600033C082EE8C0F863078F58C2F0E94C628D2
:1052700080933C0329C0CE34E9F020F4CB3421F5EF
:105280006AE013C0C13579F0C235F1F461E00DC0B8
:1052900080913C03882319F010923C0315C081E0F3
:1052A00080933D0315C061E006C080913C030E94DD
:1052B00042270AC06AE080913C030E94B82704C0DC
:1052C00010923D0380E004C081E002C080E0ADCFD9
:1052D000CF91089580915E0308950F931F93CF930C
:1052E000DF9300D01F92CDB7DEB78C010E94D02B88
:1052F000823011F0843021F584E089831B830A8396
:1053000082E08093E9008FEF9091E800815095FD55
:1053100006C095ED9A95F1F700008111F5CF8091C7
:10532000E80085FF0DC040E050E063E070E0CE0192
:1053300001960E94ED2B8091E8008E778093E80023
:105340000F900F900F90DF91CF911F910F910895C3
:10535000CF93DF9300D01F92CDB7DEB72091AF037C
:10536000243031F523E02983805891099B838A8377
:1053700082E08093E9008FEF9091E800815095FDE5
:1053800006C095ED9A95F1F700008111F5CF809157
:10539000E80085FF0DC040E050E063E070E0CE0122
:1053A00001960E94ED2B8091E8008E778093E800B3
:1053B0000F900F900F90DF91CF910895CF93DF93CF
:1053C000EC010E94D02B823011F08430F9F482E09D
:1053D0008093E9009FEF8091E800915085FD06C021
:1053E00085ED8A95F1F700009111F5CF8091E800E5
:1053F00085FF0CC040E050E066E070E0CE010E9406
:10540000ED2B8091E8008E778093E800DF91CF91BB
:105410000895CF93DF93EC010E94D02B823011F0DE
:105420008430D9F580912001882339F08091A90337
:1054300087FF03C060E282E002C068E081E0809301
:10544000E9008FEF9091E800815095FD06C095ED41
:105450009A95F1F700008111F5CF8091E80085FF62
:105460001CC080912001811105C040E050E068E03F
:1054700070E003C070E040E050E0CE010E94ED2BF0
:105480008091E8008E778093E80080E2FE01AEE331
:10549000B3E001900D928A95E1F7DF91CF910895E5
:1054A0008091AE03811109C00E94822D0E94DF2DE0
:1054B0008091E20084608093E20008951092AE0330
:1054C0000895089508950C94402442E061EC81E031
:1054D0000E94FC2C42E261EC82E00C94FC2C809156
:1054E000B103833009F453C030F4813071F082305D
:1054F00009F48CC008958A3009F478C08B3009F41F
:105500005EC0893009F09AC020C08091B003813A12
:1055100009F094C08091E800877F8093E800809133
:10552000B4039091B503892B21F460E28EE393E0FC
:1055300003C060E080E090E070E00E94382C809131
:10554000E8008B778093E80008958091B003813262
:1055500009F074C08091B4039091B503029708F0EC
:105560006DC08091E800877F8093E8008091E8001B
:1055700082FD05C08091AF038111F8CF5FC080919B
:10558000F10080935E038091E8008B7753C0809197
:10559000B003813A09F052C08091B4039091B503F1
:1055A000892B09F04BC08091E800877F8093E80049
:1055B0008091E80080FFFCCF8091200136C080916F
:1055C000B0038132D9F58091B4039091B503892B52
:1055D000A9F58091E800877F8093E8000E94312D33
:1055E0008091B203809320010C94681C8091B003D9
:1055F000813221F58091E800877F8093E8000E9446
:10560000312D8091B30380935F0308958091B0039F
:10561000813AA1F48091E800877F8093E80080912F
:10562000E80080FFFCCF80915F038093F1008091C0
:10563000E8008E778093E8000C94312D089584B7AC
:10564000877F84BF0FB6F894A89580916000886129
:1056500080936000109260000FBE80E8809361002C
:10566000109261000E947B160E94822D0E94DF2D05
:105670008091E20084608093E20078940E946E3012
:105680000E94811686E191E00E940E168091AF0380
:10569000853069F40E94F8238091AD038823B1F32B
:1056A0000E942924882391F30E94D72BEFCF0E94D8
:1056B00089160E940815EACF0C945E2B292F3327F8
:1056C00023303105C9F064F42130310581F02230F6
:1056D000310509F04CC08BE390E026E436E04BC086
:1056E0002132310521F12232310589F140C082E1B8
:1056F00090E021E836E03FC099278130910571F0B4
:105700002CF4892BA1F5E2E4F6E00DC0823091057E
:1057100041F0039761F5ECE0F6E005C0EAE2F6E05F
:1057200002C0E2E1F6E0849190E09F0124C061159F
:10573000710541F061307105D1F489E090E021E715
:1057400036E019C089E090E028E536E014C0611524
:10575000710541F06130710551F480EC90E023E96E
:1057600036E009C080E490E023E537E004C080E043
:1057700090E020E030E0FA0131832083089508951D
:10578000CF93C82F0E94BF2BC0936003CF91089581
:105790008091AF03843011F081E0089582E0089594
:1057A00080916003811102C00C94C82B089580E1A0
:1057B00089BD82E189BD09B400FEFDCF8091D8008A
:1057C0008F7D8093D8008091E00082608093E0001C
:1057D0008091E00081FDFCCF0895CF92DF92EF929F
:1057E000FF920F931F93CF93DF93EC018B016A011C
:1057F0000E94502D811133C0C114D10439F0F6013B
:1058000080819181081B190BC80FD91FE12CF12C45
:105810000115110519F18091E80085FD16C08091F0
:10582000E8008E778093E800C114D10449F0F601B6
:1058300080819181E80EF91EF182E08285E00FC03F
:105840000E94502D882321F30AC089918093F10092
:1058500001501109FFEFEF1AFF0ADACF80E0DF9164
:10586000CF911F910F91FF90EF90DF90CF9008950F
:105870002091B6033091B7032617370748F061151A
:10588000710539F42091E8002E772093E80001C0DB
:10589000B90140E061157105A9F12091AF03222300
:1058A00009F443C0253009F442C02091E80023FDEB
:1058B00040C02091E80022FD32C02091E80020FF86
:1058C000E9CF4091F3002091F20030E0342BFC014D
:1058D000CF016115710559F02830310540F48191EF
:1058E0008093F100615071092F5F3F4FF1CF41E08C
:1058F0002830310509F040E02091E8002E77209310
:10590000E800C8CF4111C9CF0AC08091AF038823F6
:1059100061F0853061F08091E80083FD0AC08091DC
:10592000E80082FFF2CF80E0089582E0089583E0EE
:10593000089581E008952091B6033091B7032617AA
:10594000370748F06115710539F42091E8002E778A
:105950002093E80001C0B901FC0120E06115710548
:1059600091F18091AF03882309F440C0853009F498
:105970003FC08091E80083FD3DC08091E80082FD3A
:105980002FC08091E80080FFE9CF2091F300809143
:10599000F20090E0922B6115710559F08830910565
:1059A00040F424912093F1003196615071090196E1
:1059B000F2CF21E0089709F020E08091E8008E778F
:1059C0008093E800CBCF2111CCCF0AC08091AF03E8
:1059D000882361F0853061F08091E80083FD0AC082
:1059E0008091E80082FFF2CF80E0089582E0089580
:1059F00083E0089581E00895982F973058F59093AB
:105A0000E900981739F07091EC002091ED00509169
:105A1000F00003C0242F762F50E021FF19C03091F1
:105A2000EB003E7F3093EB003091ED003D7F3093F3
:105A3000ED003091EB0031603093EB007093EC009F
:105A40002093ED005093F0002091EE0027FF07C057
:105A50009F5FD3CF8F708093E90081E0089580E04D
:105A600008958091B00387FF11C08091E80082FD06
:105A700005C08091AF038111F8CF11C08091E8007B
:105A80008B770BC08091AF03882349F08091E800A9
:105A900080FFF8CF8091E8008E778093E80008952A
:105AA0002091E4003091E50095E64091EC00842FD0
:105AB000817040FF22C08091E80080FD1CC0809171
:105AC000AF03882391F0853091F08091EB0085FD44
:105AD00010C04091E4005091E5004217530729F3AC
